:100000002DC3000070C300006EC300006CC300006D
:100010006AC3000068C300000C9438390C946B3933
:100020000C949E390C94D1395EC300005CC300006F
:100030005AC3000058C300000C94F13A0C94293BB9
:100040000C94613B0C94993B0C94D13B0C94093C6F
:100050000C94413C0C94793C0C94B13C0C94E93CDC
:1000600042C3000040C300003EC300003CC3000088
:100070003AC3000038C3000036C3000034C3000098
:1000800032C3000030C300002EC300002CC30000A8
:100090002AC3000028C3000026C3000024C30000B8
:1000A00022C3000020C300001EC300001CC30000C8
:1000B0001AC3000018C3000016C300000C94513F7F
:1000C0000C94893F0C94C13F0C94F93F0C9431403F
:1000D0000C94694008C3000006C3000004C300007C
:1000E00002C3000000C30000FEC20000FCC200000A
:1000F000FAC20000F8C20000F6C20000F4C200001C
:10010000F2C20000F0C20000EEC20000ECC200002B
:10011000EAC20000E8C20000E6C20000E4C200003B
:10012000E2C20000E0C20000DEC20000DCC200004B
:10013000DAC200000C94213D0C94593D0C94913D81
:100140000C94C93D0C94013E0C94393E0C94713EC4
:100150000C94A93E0C94E13E0C94193FC4C20000DB
:10016000C2C20000C0C20000BEC20000BCC200008B
:10017000BAC20000B8C20000B6C20000B4C200009B
:10018000B2C20000B0C20000AEC20000ACC20000AB
:10019000AAC20000A8C20000A6C20000A4C20000BB
:1001A000A2C20000A0C200009EC200009CC20000CB
:1001B0009AC2000098C2000096C2000094C20000DB
:1001C00092C2000090C200008EC200008CC20000EB
:1001D0008AC2000088C2000086C2000084C20000FB
:1001E00082C2000080C200007EC200007CC200000B
:1001F0007AC200000C947A4876C200000101020223
:10020000020203030405050607080A0B0D0F121569
:10021000181C21262C333C46515E6E7F01010101E2
:1002200001010101010101020202020202020202B5
:100230000202020202030303030303030304040490
:100240000404040405050505050606060606070759
:1002500007080808080909090A0A0B0B0B0C0C0D02
:100260000D0E0E0F1010111112131414151617186D
:1002700019191A1C1D1E1F202123242527282A2B6B
:100280002D2F31333537393B3D404245474A4D509C
:1002900053565A5D6164686C71757A7F000000FF87
:1002A0000000FF0000FF0100FF0300FF0600FF0940
:1002B00000FF0E00FF1400FF1C00FF2500FF2C00B4
:1002C000FF3800FF4700FF5500FF6700FF7B00FF7E
:1002D0008900FFA000FFBA00FFD600FFF200FAFF7E
:1002E00000EDFF00E1FF00D4FF00C7FF00BFFF00EB
:1002F000B2FF00A5FF0099FF008CFF007FFF007791
:10030000FF006AFF005DFF0050FF0043FF003BFF5E
:10031000002EFF0021FF0015FF0008FF0000FF0076
:1003200000FF0000FF0000FF0000FF0000FF0000D2
:10033000FF0000FF0000FF0200FF0300FF0600FFB8
:100340000900FF0E00FF1600FF2100FF2F00FF3CF9
:1003500000FF5100FF6F00FF9400FFC400FFFF008B
:10036000E9FF00CBFF00B0FF0099FF0082FF00759E
:10037000FF0062FF0050FF0041FF0034FF002CFF30
:100380000022FF0019FF0012FF000CFF0007FF0012
:1003900005FF0002FF0001FF0000FF0000FF040056
:1003A000FF1000FF1D00FF2A00FF3700FF3F00FF86
:1003B0004C00FF5900FF6600FF7200FF7F00FF87BF
:1003C00000FF9400FFA100FFAE00FFBA00FFC300D2
:1003D000FFD000FFDD00FFE900FFF600FFFF00FF98
:1003E000FF00DBFF00C4FF00AAFF0094FF0085FFB1
:1003F000007FFF006FFA006FED0053E1003CD40076
:100400002FC70020C70016BF0010B2000FA5000EB6
:1004100099000D8C000C7F000BE1DCBC1203360050
:100420003600360036003600360036004100000047
:1004300040034D00490044004900200046004900A7
:100440004700480054004500520020005400570067
:100450004900530054004C0055004800480020005B
:1004600032003000320036003000330031003500F9
:1004700000001C0344004A00200054006500630093
:100480006800200054006F006F006C0073000000D3
:10049000040309040902650002010080F009040058
:1004A0000000010100000924010001090001010907
:1004B00004010002010300000724010001410006BD
:1004C00024020101000624020202000924030103A0
:1004D00001020100092403020401010100090501D0
:1004E00002400000000005250101010905820240CB
:1004F00000000000052501010312011001000000A9
:1005000040802507000100010200010000000000FA
:1005100000000000000000000000007F0000007FDD
:100520000000007F0000007F000000000000007F4E
:10053000000000000000007F00000000000000003C
:100540000000000055007F00007F007F0000550084
:10055000006400006E00007F0000001455007F0062
:10056000007F0000007F0000235555557F7F00006D
:10057000006E7F640000000055555555146E007FD5
:100580000A6414002D7F006E2D4B237F007F007FB7
:10059000006E7F007F007F7F007F007F007F7F7F76
:1005A000007F7F7F007F7F7F7F7F7F557F647F55C8
:1005B0007F557F557F557F6E7F647F07634236B7D7
:1005C0009BD8A71A39685618AEBAAB558C1D3CB7E4
:1005D000CC5763BD6DEDFD753EF6177231BF00005F
:1005E00000803F05A84CCDB2D44EB93836A9020CD4
:1005F00050B9918688083CA6AAAA2ABE00000080AD
:100600003F08000000BE922449123EABAAAA2ABEAF
:10061000CDCCCC4C3E00000080BEABAAAAAA3E00C6
:10062000000000BF000000803F0000000000084103
:1006300078D3BB4387D1133D190E3CC3BD4282AD75
:100640002B3E68EC8276BED98FE1A93E4C80EFFF4D
:10065000BE01C4FF7F3F00000000000011241FBE48
:10066000CFEFCDBFDFE3DEBF00E00CBF18BE19BE89
:100670001ABE1BBE8091780083FF1CC08091133D81
:100680009091143DA091153DB091163D8A3C9C4A35
:10069000A244BC4D79F41092133D1092143D109277
:1006A000153D1092163D81E08CBFE0910E20F09137
:1006B0000F20199510E2A0E0B0E2E0EAFBE900E0CB
:1006C0000BBF02C007900D92AC3CB107D9F71BBE1F
:1006D0002DE3ACECB0E201C01D92A331B207E1F70B
:1006E000E6D00C94A04D8CCCEF92FF920F931F9309
:1006F000CF93DF93CDB7DEB72897CDBFDEBF809114
:10070000463B843009F03FC00E94DF3483309105BE
:1007100009F463C008F041C08130910509F446C076
:10072000029709F454C00E94B526882349F18091AC
:10073000A23A9091A33A0E941E430E948044809165
:10074000A2008C7F8093A20010E000E0F12CE12C4D
:10075000BE016F5F7F4F8091A23A9091A33A0E94B1
:100760003143811140C00F5F1F4F0837110528F436
:10077000A895E11482E0F80659F787E08093A2007B
:1007800081E08093CC202896CDBFDEBFDF91CF9152
:100790001F910F91FF90EF900895049721F60E940A
:1007A00054340E94A5310E949B2EBDCF0E9440224E
:1007B0000E9412190E9412190E9412190E94121905
:1007C0000E9412190E9412190E94AF36ACCF80E02D
:1007D0000E94F3160E94AF36A6CF81E00E94F31666
:1007E0000E94AF36A0CF9FEFE91AF90A89819A815A
:1007F000AB81BC818D839E83AF83B887BC01CD0163
:100800000E94462810E000E0B4CF6EDF0E948044D2
:10081000A8951092CC20089580E180935500809196
:1008200050008061809350008091510084FFFCCF84
:100830008FB7F894A0E4B0E028ED30E094E01BBE60
:10084000FD0124BF90838FBF8FE39FE10197F1F7F4
:1008500000C0000080914000809150008260809331
:1008600050008091510081FFFCCF80915600846040
:100870008093560080E8809365008BEB8093660040
:1008800082E08093CA01EDE1F0E0E491E093620040
:10089000ECE1F0E0E491E09363001092CA0181E0A2
:1008A0008093600087E08093A2000C944448B4DFFA
:1008B000E3D348D20E9422250E949E260E94FC1368
:1008C0000E94D3348CD40E94E4290CD50FD52FEF8D
:1008D00089EF90E0215080409040E1F700C0000097
:1008E0000E94D9280E94EC258930904971F40E9419
:1008F0008126C0E08C2F0E94DA258C2F0E94E125F2
:10090000CF5FC031B9F781DFFECF0E94EC258115A2
:10091000904F79F76FEF82E090E00E94AA3A0E9430
:10092000D928E7CF8091A23A9091A33A0E94B5428C
:10093000882389F0D3D486E00E94811281E090E080
:100940000E94E4340E946920A89588E090E00E940B
:100950008D420C94A142089508957F928F929F92A8
:10096000AF92BF92CF92DF92EF92FF920F931F93BD
:10097000CF93DF93CDB7DEB7C055D109CDBFDEBF72
:10098000FB01833008F43DC0D0800181D1105AC0F2
:100990008630B8F10023A9F19281992391F1448125
:1009A000242F30E08450990B4817190654F5802FF6
:1009B0008150990BBC01A4E095958795AA95E1F724
:1009C0006F707727AE014F5F5F4F1FE0DA011D9216
:1009D0001A95E9F7DA018E01005F1F4F90E8F92EB2
:1009E000FD920A171B07E1F71E2FDF012150310985
:1009F000EA2FE11BE2171306B4F00E94801A72D4AA
:100A0000A895C05BDF4FCDBFDEBFDF91CF911F91B7
:100A10000F91FF90EF90DF90CF90BF90AF909F909D
:100A20008F907F9008951596EC911597EA50EF30CE
:100A300038F4E40FF52FF11D16960C9116970083EC
:100A40001296D6CFB1E0DB12DCCFE02FF0E09F01B1
:100A500021503109C90160E170E00E94184937FF57
:100A600002C0215F3F4F74E0359527957A95E1F7F5
:100A7000AE014E5B5F4F682F822F0E94A2138AE067
:100A80008CA323968FAD23978DA38BE08EA3249602
:100A90008FAD24978FA38CE088A725968FAD2597DF
:100AA00089A78DE08AA726968FAD26978F5F8BA7A3
:100AB0008EE08CA727968FAD27978DA78FE08EA706
:100AC0001FA680E188AB29968FAD29978F5F89ABF0
:100AD00081E18AAB2A968FAD2A978BAB82E18CABF2
:100AE0002B968FAD2B978DAB83E18EAB2C968FAD74
:100AF0002C978FAB84E188AF2D968FAD2D9789AF62
:100B000085E18AAF2E968FAD2E978BAF86E18CAFA5
:100B10002F968FAD2F978DAF87E18EAF60968FADFB
:100B200060978FAF88E121968FAF219761968FAD47
:100B3000619722968FAF22978FEF800FE12C803440
:100B400010F46EE1E62E8E2D68E10E94EB48CC2475
:100B5000C394C80EF12C20EFB22EAA24A39439E737
:100B6000932E44E0842E17EF5AE0752E8E2DE8E187
:100B7000EE1508F488E1F8EEEF0EB9821A82AB8226
:100B80009C828D821E820F83D886C9868A871B87A6
:100B90001C871D871E871F87188B198B1A8B1B8B31
:100BA0001C8B1D8B1E8B1F8B188F198F1A8F1B8F01
:100BB0001C8F1D8F1E8F1F8F18A319A31AA31BA391
:100BC000972D9F19482F50E0475F5F4F292F2F0D1A
:100BD00030E042175307ACF4BE016F5F7F4F855F73
:100BE0000E94E5278091A23A9091A33A0E94F64292
:100BF000A89581E08D0D92E0D92EC81608F0B6CFE9
:100C000000CF61E070E06C0F7D1F260F371FE4E21C
:100C1000F0E0EC0FFD1FEF0DF11D6081D9016C9329
:100C2000F394D4CF9C01962FDB014150550B8A2FB2
:100C3000891B841715060CF00895EC91EA3048F4EE
:100C400011968C911197E20FF32FF11D808312966C
:100C5000EECFEF31E0F311968C911197E20FF32F65
:100C6000F11D75978083F3CFCF93DF93CDB7DEB7B8
:100C7000A597CDBFDEBFF8940E941435FC0178948F
:100C800080EF89831A8281E08B8399E79C8322E03D
:100C90002D838E831F829091AF339F5F98878987C2
:100CA00084858A872B8780818C8783E08D878281EA
:100CB0008E8784E08F878481888B85E0898B86810D
:100CC0008A8B86E08B8B80858C8B87E08D8B8285F1
:100CD0008E8B88E08F8B8091AE33888F89E0898FEF
:100CE0008091A7338A8F8FE18B8F8091D82C8C8F46
:100CF00080E28D8F8091AD338E8F81E28F8F8091D6
:100D0000DC3388A382E289A38091DD338AA383E266
:100D10008BA38091DE338CA387EF8DA3BE016F5F21
:100D20007F4F85E20E94E527A596CDBFDEBFDF910C
:100D3000CF910895FB01882321F08081811101C0AA
:100D400093CF0895CF93DF93CDB7DEB72D97CDBF67
:100D5000DEBFF89481E090E00E94523A8093AF3376
:100D600083E090E00E94523A91E0811101C090E04E
:100D70009D8784E090E00E94523A90E089839A83B4
:100D800085E090E00E94523A90E08B839C8386E05D
:100D900090E00E94523A90E08D839E8387E090E03D
:100DA0000E94523A90E08F83988788E090E00E94FA
:100DB000523A90E089879A8789E090E00E94523AFF
:100DC00090E08B879C878AE090E00E94523A809363
:100DD000AE338BE090E00E94523A8093A7338CE0D0
:100DE00090E00E94523A8093D82C8DE090E00E94CF
:100DF000523A8093AD338EE090E00E94523A91E0F7
:100E0000811101C090E09093DC338FE090E00E946C
:100E1000523A91E0811101C090E09093DD3380E17E
:100E200090E00E94523A91E0811101C090E09093CD
:100E3000DE3381E09091DC33911101C080E00E94AB
:100E40009613CE0101960E94E93478942D96CDBF79
:100E5000DEBFDF91CF910895FF920F931F93CF9341
:100E6000DF93CDB7DEB72F97CDBFDEBFF82E8B0156
:100E70000E949A42CE0101962FE0FC0111922A9520
:100E8000E9F74F2DB801CEDE6981615081E090E035
:100E90000E94AA3A6A8183E090E00E94AA3A6B819C
:100EA00084E090E00E94AA3A6C8185E090E00E9484
:100EB000AA3A6D8186E090E00E94AA3A6E8187E0AE
:100EC00090E00E94AA3A6F8188E090E00E94AA3ADE
:100ED000688589E090E00E94AA3A69858AE090E0FE
:100EE0000E94AA3A6A858BE090E00E94AA3A6B853C
:100EF0008CE090E00E94AA3A6C858DE090E00E9420
:100F0000AA3A61E08D85811101C060E08EE090E039
:100F10000E94AA3A61E08E85811101C060E08FE0F5
:100F200090E00E94AA3A61E08F85811101C060E0E3
:100F300080E190E00E94AA3A60E07FEF80E090E0DC
:100F40000E945210FFDE0E94FC138EDE0E94692078
:100F50002F96CDBFDEBFDF91CF911F910F91FF90F4
:100F60000895F89468E090E080E00E94AA3A63E077
:100F700081E090E00E94AA3A61E083E090E00E9464
:100F8000AA3A60E084E090E00E94AA3A67E085E037
:100F900090E00E94AA3A60E086E090E00E94AA3ABF
:100FA0006FE087E090E00E94AA3A6DE088E090E070
:100FB0000E94AA3A6EE089E090E00E94AA3A6FE3AC
:100FC0008AE090E00E94AA3A6FE78BE090E00E94EE
:100FD000AA3A6FE78CE090E00E94AA3A6FE78DE0B2
:100FE00090E00E94AA3A61E08EE090E00E94AA3A66
:100FF00061E08FE090E00E94AA3A60E080E190E03A
:101000000E94AA3A78940C94A214FB01882399F1C7
:101010008081813019F0823081F008950E949A42D7
:101020000E9409482FEF8FE493EC215080409040BC
:10103000E1F700C000000C9481260E949A4291DFE3
:1010400087E08093A2006FEF7FEF80E090E00E9446
:1010500052100E9409482FEF8FE493EC21508040FA
:101060009040E1F700C0000081E090E00E948D42D6
:101070000E94A142FFCF08956CE277E081E00E94D8
:1010800062376AE976E082E00E94623765E078E0E4
:1010900083E00E9462376DEA74E084E00E94623768
:1010A00090E080E00E94523A883009F05ACF0895CB
:1010B0009C01DA01832F99278230910561F18330F9
:1010C000910549F00197A1F482E190E029EF34E025
:1010D0002D933C930895C90199272230C9F083309C
:1010E000910558F4009789F0E2E7F4E0019749F0A0
:1010F00090E080E030E020E0EBCFECE1F4E003971B
:10110000B9F7849190E09F01E3CFE0E9F4E0F9CFF3
:10111000E0E3F4E0F6CF85E690E024E934E0D8CFD0
:10112000809120089091210881589F4F80932A0830
:1011300090932B088091E0209091E120892B49F039
:101140008091E0209091E12001978093E02090939E
:10115000E1200895809120089091210809968093BC
:1011600028089093290880E180936506809366069D
:101170009FB7F894809110018068809310019FBF01
:101180008091DF338F5F8093DF338091DF338F3443
:1011900088F01092DF33809104018171E1F782EFD2
:1011A00090E22FB7F8948093180190931901109250
:1011B0001A012FBF80916C2C811110C08091E033F7
:1011C0008F5F8093E0338091E0338F3F39F48091DB
:1011D000E1338F5F8093E1331092E03308951F93E2
:1011E000CF93DF9340E05AE06FEF70E082EF90E240
:1011F0000E94994DE1EBF3E386E0DF011D928A95B1
:10120000E9F7E0EBF3E380E290E08483958384E008
:10121000808310E1128382EF90E28783908780EAD7
:1012200099E0818792878CE683830E94253960EB61
:1012300073E380E00E94043A9FB7F894E0E0F1E0A5
:101240008081837F816080839FBF63E070E280EA5A
:1012500099E00E940642C0E6D6E088E0898382E0F9
:10126000898380E098E00E94A1406AEA78E080E00B
:1012700098E00E94E04060E978E080E098E00E9419
:101280000D41E0E0F8E089E090E080A791A78FE7CA
:1012900090E082A793A787818C7F87838781836073
:1012A00087838781837F8783878184608783818128
:1012B000887F818378948081807F8660808391E0BD
:1012C000998380E2898319839D838E838D831E8316
:1012D0001092DF33DF91CF911F91089581E08093C9
:1012E0006606089581E080936506089540E05AE01F
:1012F0006FEF70E082EF90E20C94994D4F925F9205
:101300006F927F928F929F92AF92BF92CF92DF9215
:10131000EF92FF920F931F93CF93DF9300D000D0F3
:10132000CDB7DEB77C01762E6A015A0131E0A31AEF
:10133000B108222309F42FC181EC860F823048F5D1
:1013400081E090E0D7018D939C93119782E090E02B
:1013500013968D939C93149712960C9312978FE784
:10136000801B15968C9381E090E02696CDBFDEBF62
:10137000DF91CF911F910F91FF90EF90DF90CF9071
:10138000BF90AF909F908F907F906F905F904F90A5
:101390000895862F90E04230510509F06DC0CF9737
:1013A0009C01990F440B550B29833A834B835C8333
:1013B000CA01B9010E94764AB62E072F182F9E83C4
:1013C00023E333E34BE451E469837A838B839C8387
:1013D00069817A818B819C810E94DB4969837A8350
:1013E0008B839C8369817A818B819C810E94434A93
:1013F0006D8323E333E34BE451E4B9820A831B8317
:101400008E818C8369817A818B819C810E94B84A0C
:101410004B018C0120E030E040E251E469839A8284
:101420008B831C8369817A818B819C810E94864B8E
:101430009B01AC015F7729833A834B835C83CA01AC
:10144000B9010E94484A6E83412CE4E05E2E612C73
:10145000712CAD81A7FF40C1D301C201880F991F34
:10146000AA1FBB1F482A592A6A2A7B2AFD81FF5FCF
:10147000FD83F111F1CF33C13FE32FE3361708F0BD
:1014800020E4821B91099C01990F440B550B298381
:101490003A834B835C83CA01B9010E94764A562E77
:1014A000672E782E9D8326E636E64EE751E4698363
:1014B0007A838B839C8369817A818B819C810E9452
:1014C000B84A4B018C0120E030E040E051E46983F0
:1014D0009A828B831C8369817A818B819C810E9493
:1014E000864BDC01CB01BF7789839A83AB83BC83B6
:1014F000BC01CD010E94484A6E8326E636E64EE7DF
:1015000051E459826A827B829D819C8369817A81C0
:101510008B819C810E94DB4969837A838B839C83C6
:1015200069817A818B819C810E94434A6D8320E08E
:1015300030E0A90189829A820B831C8369817A81B8
:101540008B819C810E94D74987FF1CC0AD81A1502F
:10155000AD83412C74E0572E612C712C92E0A916BA
:10156000B10408F476CF2D81822F022E000C990B46
:1015700027FDDDC004C076946794579447942A955C
:10158000D2F7ADC0BD81BF5FBD83412C64E0562E54
:10159000612C712CE3CF262F30E050E040E029830E
:1015A0003A834B835C83CA01B9010E94764A32E0D8
:1015B000C316D10409F055C020E030E048E351E4FF
:1015C00069837A838B839C8369817A818B819C81F7
:1015D0000E94DB4969837A838B839C8369817A814A
:1015E0008B819C810E94434A6D83872D90E0B0E0FF
:1015F000A0E089839A83AB83BC83BC01CD010E94A8
:10160000744A20E030E048E351E469837A838B83B5
:101610009C8369817A818B819C810E94B84A4B01AD
:101620008C0120E030E040E351E469839A828B83AF
:101630001C8369817A818B819C810E94864B69839E
:101640007A838B839C8369817A818B819C810E94C0
:10165000484A6E83772079F1412C512C32016394F2
:10166000F8CE26E636E64AE351E469837A838B8333
:101670009C8369817A818B819C810E94DB4969838B
:101680007A838B839C8369817A818B819C810E9480
:10169000434A6D83812C912C00E010E01E82711072
:1016A00004C0412C512C320159CF412C40E8542E1A
:1016B000612C712C53CF412C512C3201CACED30155
:1016C000C201B695A79597958795482A592A6A2AFF
:1016D0007B2ABD81B150BD83ED81E111F0CF520174
:1016E000D70113964D925C92149720E030E0A90147
:1016F00089829A820B831C8369817A818B819C8188
:101700000E94824B1816F4F4B2E0CB16D104C9F54E
:1017100076946794579447944A285B28F70140824F
:1017200051822E8122838FE7F70185831CCE91950C
:101730008195910904C0440C551C661C771C8A9540
:10174000D2F7CDCF20E030E0A90189829A820B83C5
:101750001C8369817A818B819C810E94D74987FF94
:1017600010C032E0C316D10461F4440C551CA42807
:10177000B528D701AD92BC921197EE811296EC93E9
:10178000D2CFD7011D921C92119712961C92B3E0F2
:10179000CB16D10409F4E7CDC6CFCF92DF92EF92FA
:1017A000FF920F931F93CF93DF93CDB7DEB72A97A6
:1017B000CDBFDEBFF82E842FA90167FD96C0282F6C
:1017C000CE0101969BDD892B09F48FC02E2D30E0D0
:1017D00050E040E02F83388749875A87CA01B90112
:1017E0000E94764A20E030E04EEF52E46F83788723
:1017F00089879A876F81788589859A850E94DB49D8
:101800006B01E82E092F8B81282F30E050E040E05B
:101810002F83388749875A87CA01B9010E94764ABF
:1018200096014E2D502F6F83788789879A876F8115
:10183000788589859A850E94864B6F83788789870A
:101840009A876F81788589859A850E94484A162FE4
:101850008E81282F30E050E040E02F833887498781
:101860005A87CA01B9010E94764A96014E2D502F1F
:101870006F83788789879A876F81788589859A852C
:101880000E94864B6F83788789879A876F817885D6
:1018900089859A850E94484A29814A81237E3C8114
:1018A0005D81337EEFE0F0E0EF19F109EE0FFF1FED
:1018B000EE50FF4D90E07FEF20954095309550958C
:1018C0008081836E80837183911718F482238083D3
:1018D0004183961730F4808183238083818185231F
:1018E0008183B0969F5F903559F72A96CDBFDEBFB2
:1018F000DF91CF911F910F91FF90EF90DF90CF90EC
:101900000895EF920F93E091AD33F0E0E45EFD4F68
:10191000E49043DF0F91EF9008954F925F926F92A2
:101920007F928F929F92AF92BF92CF92DF92EF926F
:10193000FF926A017B01270166247724442D8D2CB8
:101940009E2CAF2CBB24582D3C2D2223A1F02150DE
:10195000330B429EA001439E500D1124452F829EC1
:10196000B001839E700D1124572FC29EB001C39EFB
:10197000700D1124372FEFE0F0E0E81BF109EE0FB6
:10198000FF1FEE50FF4D90E080819317E8F08C61CF
:101990008083941718F48081877F8083951718F4CB
:1019A00080818F7E8083B0969E5F903A69F7FF902A
:1019B000EF90DF90CF90BF90AF909F908F907F90EF
:1019C0006F905F904F9008958B7F88618083E1CF07
:1019D000EFE0F0E0E81BF109EE0FFF1FEE50FF4DC6
:1019E00090E02FEF607E609570958081836E80839C
:1019F0002183941718F4862380837183B0969F5FA8
:101A0000903599F70895E091AD33F0E0E45EFD4F35
:101A10004491DECF242FE82FF0E0EE51FF4D60839C
:101A200093E0699FF0011124E456FD4F45915591D3
:101A30006591749172CFE091D82CF0E0E45EFD4F97
:101A40004491E8CF2091E13330E048E050E0481B7A
:101A50005109C90102C0959587954A95E2F78170B1
:101A60000895CF93DF9300D00F92CDB7DEB728E073
:101A700030E0281B310980916C2C811153C080917A
:101A8000E13340E2849FC001112402C095958795FF
:101A90002A95E2F78093CE208091CE20282F30E047
:101AA00050E040E029833A834B835C83CA01B9014B
:101AB0000E94764A27E53FEC49E45DE369837A8337
:101AC0008B839C8369817A818B819C810E94864B68
:101AD00069837A838B839C8369817A818B819C81E2
:101AE0000E94354C20E030E04CEF52E469837A8369
:101AF0008B839C8369817A818B819C810E94864B38
:101B000069837A838B839C8369817A818B819C81B1
:101B10000E94484A80E8860F2496CDBFDEBFDF9141
:101B2000CF9108958091E13350E2859FC001112447
:101B300002C0959587952A95E2F78093CE20ACCF89
:101B40006F927F928F929F92AF92BF92CF92DF92CD
:101B5000EF92FF920F931F93CF93DF9300D000D0AB
:101B6000CDB7DEB78D83F62E842F442309F499C0B8
:101B70009FEF940F9830C8F465DF20E040E050E01C
:101B8000BA01882349F12D81E22FF0E0EE51FF4D9B
:101B9000E08133E0E39FF0011124E456FD4F4591CD
:101BA00055916591749120E017C097EF940F98308C
:101BB000A8F4885056DF282F4D81E42FF0E0EE5135
:101BC000FF4DE08153E0E59FF0011124E456FD4F05
:101BD00045915591659174918D811DC09FEE940F33
:101BE000903258F59D81E92FF0E0EE51FF4DE081F4
:101BF000A3E0EA9FF0011124E456FD4F4591559171
:101C000065917491282F2151330BF901E450FE4F57
:101C10002491220F892F2696CDBFDEBFDF91CF9171
:101C20001F910F91FF90EF90DF90CF90BF90AF90FA
:101C30009F908F907F906F9070CE9FEC940F983014
:101C400008F05EC0262F2295207F3D81320F398318
:101C50008053F8DE4981242F30E05D81052F10E0AC
:101C600090E1F99EF001112481112DC08FE0829F37
:101C7000D001839FB00D1124AE55BA4C1C962C9107
:101C80001C9730E041E08C91811101C040E0EE5D95
:101C9000FB4CE00FF11FE12C1B960C9160818D81B4
:101CA0007CDD2696CDBFDEBFDF91CF911F910F91D6
:101CB000FF90EF90DF90CF90BF90AF909F908F906C
:101CC0007F906F9008958FE0829FD001839FB00D29
:101CD0001124AE55BA4C1C962C911C9730E041E073
:101CE0008C91811101C040E0EE5DFB4CE00FF11FD3
:101CF000EE24EA941B960C9160818D814EDDD1CF4C
:101D000097EC940F983038F5A62FA295A07FBD814F
:101D1000BA0FB9838753A5DEE82E39812FE0329FB1
:101D2000D0011124AE55BA4C1C962C911C9730E072
:101D300041E08C91811101C040E050E1F59EF0013D
:101D40001124EE5DFB4C8D81E80FF11D1B960C916B
:101D5000608123DDA6CF9FEB940F903290F4A42FE7
:101D6000A154BB0BFD01E450FE4FE490A62FA295B9
:101D7000A07FBD81AB0FEE0C2FE0A29FD0011124FC
:101D8000D1CF4F3709F08DCF9091E1339E83292F2A
:101D900030E050E040E029833A834B835C83CA0102
:101DA000B9010E94764A29E334EB48E45DE3698394
:101DB0007A838B839C8369817A818B819C810E9449
:101DC000864B69837A838B839C8369817A818B813B
:101DD0009C810E94354C962EA72EB82EC92E8E813E
:101DE0008B5A282F30E050E040E029833A834B8320
:101DF0005C83CA01B9010E94764A29E334EB48E4C6
:101E00005DE369837A838B839C8369817A818B818B
:101E10009C810E94864B69837A838B839C83698132
:101E20007A818B819C810E94354C662ED72E7C0155
:101E30003E813655832F90E0B0E0A0E089839A83FD
:101E4000AB83BC83BC01CD010E94764A29E334EB0D
:101E500048E45DE369837A838B839C8369817A811B
:101E60008B819C810E94864B69837A838B839C83C0
:101E700069817A818B819C810E94354C762E072F57
:101E8000182F9E8320E030E04CEF52E49982AA8222
:101E9000BB82CC8269817A818B819C810E94864B36
:101EA00069837A838B839C8369817A818B819C810E
:101EB0000E94484A862E912CA0E88A0E911C092C7B
:101EC000000CAA08BB0854019924882420E030E0C3
:101ED0004CEF52E46982DA82EB82FC8269817A817A
:101EE0008B819C810E94864B69837A838B839C8340
:101EF00069817A818B819C810E94484AC62ED12CAF
:101F0000B0E8CB0ED11C0D2C000CEE08FF08FE2C07
:101F1000ED2CDC2CCC24C80CD91CEA1CFB1C20E0CA
:101F200030E04CEF52E479820A831B838E818C83EC
:101F300069817A818B819C810E94864B69837A8337
:101F40008B839C8369817A818B819C810E94484A22
:101F5000462F50E040585F4F052E000C660B770B64
:101F6000C40ED51EE61EF71E2E2D30E050E040E0D8
:101F700029833A834B835C83CA01B9010E94744A66
:101F800020E030E04FE753E469837A838B839C83BE
:101F900069817A818B819C810E94DB4920E030E05D
:101FA00040EA50E469837A838B839C8369817A81D8
:101FB0008B819C810E94E94B4B015C018D2D90E04F
:101FC000B0E0A0E089839A83AB83BC83BC01CD01E0
:101FD0000E94744A20E030E04FE753E469837A833B
:101FE0008B839C8369817A818B819C810E94DB49F0
:101FF00020E030E040E250E469837A838B839C8365
:1020000069817A818B819C810E94E94B762E072F12
:10201000182F9E83DD24EE24FF2420E030E04FE7DC
:1020200053E489829A82AB82BC8269817A818B81F6
:102030009C810E94864B69837A838B839C83698110
:102040007A818B819C810E94484A5B019924882473
:1020500020E030E04FE753E479820A831B839E81BE
:102060009C8369817A818B819C810E94864B6983E4
:102070007A838B839C8369817A818B819C810E9486
:10208000484A69837A838B839C834427562F672F22
:10209000782F482959296A297B294C295D296E29DD
:1020A0007F2981CD7F928F929F92AF92BF92CF92E4
:1020B000DF92EF92FF920F931F93CF93DF9300D0A5
:1020C00000D0CDB7DEB78B018E839D830FD9809171
:1020D000A20081608093A20081E08093660677244D
:1020E0007A948090CD20CC24C39487FC41C0882D65
:1020F000082C000C990BAA0BBB0B89839A83AB832A
:10210000BC83BC01CD010E94764A2AE135EA4AEC43
:102110005CE369837A838B839C8369817A818B8179
:102120009C810E94864B69837A838B839C8369811F
:102130007A818B819C810E94354C20E030E04FE712
:1021400053E469837A838B839C8369817A818B8151
:102150009C810E94864B69837A838B839C836981EF
:102160007A818B819C810E94484ACC24C394C60EFC
:1021700090900220DD24D39497FC41C0892D092C36
:10218000000C990BAA0BBB0B89839A83AB83BC838E
:10219000BC01CD010E94764A2AE135EA4AEC5CE3B3
:1021A00069837A838B839C8369817A818B819C810B
:1021B0000E94864B69837A838B839C8369817A81B1
:1021C0008B819C810E94354C20E030E04FE753E446
:1021D00069837A838B839C8369817A818B819C81DB
:1021E0000E94864B69837A838B839C8369817A8181
:1021F0008B819C810E94484ADD24D394D60EA09006
:102200000120EE24E394A7FC41C08A2D0A2C000C87
:10221000990BAA0BBB0B89839A83AB83BC83BC014C
:10222000CD010E94764A2AE135EA4AEC5CE36983F3
:102230007A838B839C8369817A818B819C810E94C4
:10224000864B69837A838B839C8369817A818B81B6
:102250009C810E94354C20E030E04FE753E46983D5
:102260007A838B839C8369817A818B819C810E9494
:10227000864B69837A838B839C8369817A818B8186
:102280009C810E94484AEE24E394E60EB090002020
:10229000FF24F394B7FC41C08B2D0B2C000C990B41
:1022A000AA0BBB0B89839A83AB83BC83BC01CD0192
:1022B0000E94764A2AE135EA4AEC5CE369837A8334
:1022C0008B839C8369817A818B819C810E94864B60
:1022D00069837A838B839C8369817A818B819C81DA
:1022E0000E94354C20E030E04FE753E469837A8365
:1022F0008B839C8369817A818B819C810E94864B30
:1023000069837A838B839C8369817A818B819C81A9
:102310000E94484AFF24F394F60E2C2DA8016E81EA
:102320007D8180E0FADA2C2DA8016E817D8181E02B
:10233000F4DA2C2DA8016E817D8182E0EEDA2C2D5D
:10234000A8016E817D8183E0E8DA2D2DA8016E81E0
:102350007D8184E0E2DA2D2DA8016E817D8185E00A
:10236000DCDA2D2DA8016E817D8186E0D6DA2D2D57
:10237000A8016E817D8187E0D0DA2E2DA8016E81C3
:102380007D8188E0CADA2E2DA8016E817D8189E0E9
:10239000C4DA2E2DA8016E817D818AE0BEDA2E2D51
:1023A000A8016E817D818BE0B8DA2F2DA8016E81A6
:1023B0007D818CE0B2DA2F2DA8016E817D818DE0C8
:1023C000ACDA2F2DA8016E817D818EE0A6DA2F2D4B
:1023D000A8016E817D818FE0A0DA83948092CD2068
:1023E000939490920220A394A0920120B394B0926F
:1023F0000020AFE3BFE11197F1F700C000007A942D
:1024000071106FCE2696CDBFDEBFDF91CF911F91A9
:102410000F91FF90EF90DF90CF90BF90AF909F9083
:102420008F907F9008958091092090910A209C01BF
:10243000322F22273295330F307E28273927C901C2
:10244000892F9927869528273927C9019695982F8E
:1024500088279795879582279327809309209093C3
:102460000A200895EF92FF920F931F93CF93DF936B
:102470000FEC10E28FEDE82E80E2F82ED0E0F801AC
:10248000C1918F01CC2359F0CEDF8F739927D1E012
:10249000892B29F4F8013197C150C083D1E0E016AF
:1024A000F10669F7C091DF20CC2319F18091E0207B
:1024B0009091E120892BE9F4B6DF8F70E82FF0E0EE
:1024C000E153FF4D8081811114C01FEF1083ABDFFA
:1024D000FC01EF70FF27E153FF4D1083A4DF8F77DE
:1024E000992740968093E0209093E120C150C093BB
:1024F000DF208D2FDF91CF911F910F91FF90EF90F3
:1025000008956F927F928F929F92AF92BF92CF92D7
:10251000DF92EF92FF920F931F93CF93DF93CDB78C
:10252000DEB76497CDBFDEBF8093DF208FED90E2F2
:10253000DE011196EFECF0E211921D928E179F07CB
:10254000D9F771DFFC01EF70FF27E153FF4D8FEFEB
:10255000808369DF8F77992740968093E02090935E
:10256000E120E3ED7E2EFCE26F2E7CDF811112C0B4
:102570006496CDBFDEBFDF91CF911F910F91FF9089
:10258000EF90DF90CF90BF90AF909F908F907F9013
:102590006F9008958E010F5F1F4F7FECA72E70E2A2
:1025A000B72E912CD5018D905D01F80181918F019D
:1025B000881609F46DC0C82CCC0C8C2D90E087FED9
:1025C0006CC09C013695322F222737952795821BA8
:1025D000930B880F991F8EEF890F282F30E050E062
:1025E00040E0298B3A8B4B8B5C8BC69CC00111243D
:1025F00043ED490FC42ED12CF12CE12C69897A8945
:102600008B899C890E94744A20E030E04FE753E4B4
:10261000698B7A8B8B8B9C8B69897A898B899C8956
:102620000E94DB4920E030E040EA50E4698B7A8B7D
:102630008B8B9C8B69897A898B899C890E94E94B59
:1026400020E030E04FE753E4698B7A8B8B8B9C8BD7
:1026500069897A898B899C890E94864B698B7A8BE0
:102660008B8B9C8B69897A898B899C890E94484ACB
:10267000698B7A8B8B8B9C8B552744274C295D2942
:102680006E297F292EEF892D48D9F8013197808254
:10269000939430E1931286CF68CF3EEFC39EC00182
:1026A0001124892F990F990B9C01990F440B550BFD
:1026B000298B3A8B4B8B5C8BC79C60011124CD2CF2
:1026C000DD0CDD080D2C000CEE08FF0897CFEFE0C5
:1026D000E89FD0011124AE55BA4CE69FF0011124B9
:1026E000EE55FA4C17969C911797878198130CC05A
:1026F00018968C919085891307C0823029F09CEF41
:10270000980F81E0923008F480E00895681738F05F
:10271000481718F081E0641738F480E005C084178A
:10272000E0F381E04617C8F38170089580930B2091
:10273000811107C0E4E5FBE211928BE2E43DF8076A
:10274000D9F708950F931F93CF93DF93CDB7DEB7DB
:102750002897CDBFDEBF8A01F89440E8849F90019E
:102760001124205E3F4FE8E06E9FC001112448E035
:1027700050E0BE016F5F7F4F820F931F0E94633A4C
:1027800078948981982F9F70F801928315828295A1
:102790008F7083838A818F7784838B8181878C81FB
:1027A00082878D81982F9F779387881F8827881F1E
:1027B00080838E81982F93709487982F9695969505
:1027C0009370918382958F7086878F81982F9770F1
:1027D000908782958F7086838885982F9F779783BF
:1027E000881F8827881F85872896CDBFDEBFDF9189
:1027F000CF911F910F910895AF92BF92CF92DF9228
:10280000EF92FF920F931F93CF93DF9302EA15E3AA
:102810007801C0E06C2F6F70A7018C2F82958F70AC
:1028200091DFCF5F8FE0E80EF11CC03499F766E6C8
:10283000E62E69E3F62E73EAC72ED12CE601C058C6
:10284000D1095701CE010E94523AD5018D935D0105
:102850002896CC15DD05B1F7FE01E058FF4F6F015A
:10286000F0E1EF0EF11CC332D24041F71092423A30
:102870001092433A1092443A1092453A1092463AD6
:102880001092473A1092483A1092493AE091562CE9
:10289000F0E0A6EAB9E31D9299E3A63BB907D9F7A0
:1028A000EE0FFF1FEE5BF54C10821182C2E6D4E3FF
:1028B00094EDE92E9BE2F92E24E53BE2E2EEF4E30F
:1028C0004EECA42E48E1B42E54E6C52ED12CD801EE
:1028D0008C91882391F1A882B982A082B1828991DA
:1028E0009991C296B6010E941849D7016D937D0156
:1028F00081919191C296B6010E941849D701DF9645
:102900006C93D9011D929D01DF961C92015F1F4FB0
:10291000B9E302361B07D9F685E08093552C82E097
:102920008093542CDF91CF911F910F91FF90EF90E6
:10293000DF90CF90BF90AF900895188219821082D7
:102940001182CDCFDF92EF92FF920F931F93CF931F
:10295000DF93CDB7DEB7C858D109CDBFDEBF80E168
:10296000E2E6F0E2DE01AF58BF4F01900D928A958A
:10297000E1F780E1E1E2F0E2DE01AF59BF4F019003
:102980000D928A95E1F780E1E3E7F0E2DE01AF5ACC
:10299000BF4F01900D928A95E1F780E1E1E3F0E20B
:1029A000DE01AF5BBF4F01900D928A95E1F780E1A8
:1029B000E4E8F0E2DE01D19601900D928A95E1F70C
:1029C00080E1E1E4F0E2DE01919601900D928A95BA
:1029D000E1F78091952090919620A0919720B09159
:1029E0009820CB57DF4F88839983AA83BB83C55830
:1029F000D04080919A2090919B20A0919C20B091F2
:102A00009D20CF57DF4F88839983AA83BB83C1580A
:102A1000D0408E010F5F1F4F80E2F80111928A951E
:102A2000E9F7F80180E050E19FE74FE332E421E06D
:102A30005083818392839383448335832683878362
:102A40008F5F38968430A1F7D12C7801F0E2EF0E39
:102A5000F11C8D2D2D2D26952695D39430E0E5E89B
:102A6000F0E0EC0FFD1FE20FF31F408161E870E022
:102A70006C0F7D1F260F371FF90150818370880F5F
:102A8000880F90E0F801A1E6B0E0AC0FBD1FA80FE1
:102A9000B91F2C9130E1239FB001112420812F70A8
:102AA000262B2083A1E4B0E0AC0FBD1FA80FB91FF7
:102AB0002C912F772183A1E7B0E0AC0FBD1FA80FA9
:102AC000B91F2C912F7737813078232B2783A1E2F0
:102AD000B0E0AC0FBD1FA80FB91F2C91211120E849
:102AE00034813F77322B3483A1E3B0E0AC0FBD1FBC
:102AF000A80FB91F3C91337025812C7F322B358371
:102B0000A1E5B0E0AC0FBD1FA80FB91F3C91377015
:102B100026812870232B262B2683428353833896C5
:102B20000196EE16FF0609F0AECFF894C8010E9498
:102B3000CD3A8D2D0E94DF3A7894F80181818C5F27
:102B4000818387818C5F87833896EE16FF06B1F705
:102B500060E1D6127ECFC857DF4FCDBFDEBFDF9119
:102B6000CF911F910F91FF90EF90DF900895EF921A
:102B7000FF920F931F93CF93DF93CDB7DEB72797C5
:102B8000CDBFDEBF6D837E83282F30E050E040E074
:102B900029833A834B835C83CA01B9010E94744A3A
:102BA0002091B6203091B7204091B8205091B920A3
:102BB00069837A838B839C8369817A818B819C81F1
:102BC0000E94864B7B018C01AD81BE81CD01B0E0BE
:102BD000A0E089839A83AB83BC83BC01CD010E94B2
:102BE000744A9B01AC01E982FA820B831C836981E0
:102BF0007A818B819C810E94DB492091B2203091A7
:102C0000B3204091B4205091B52069837A838B839F
:102C10009C8369817A818B819C810E9473498B019D
:102C20008F839D8320E030E040E853E469831A837A
:102C30008B839C8369817A818B819C810E94824BEA
:102C400018164CF120E030E040E85FE369817A81BA
:102C50008B819C810E94D74987FF06C000E010E06D
:102C600090E89F83AFE3AD8309831A833F813B8361
:102C70004D814C8369817A818B819C810E94484A75
:102C8000CB012796CDBFDEBFDF91CF911F910F9172
:102C9000FF90EF90089500E010E0B0E8BF8323E4D8
:102CA0002D83E2CF9FE0499FF0011124EE55FA4CAD
:102CB00090819923E1F1E62FF0E0EE0FFF1FEE592E
:102CC000FB4C4081518143595841413D510578F5B4
:102CD00090E0DC01AA55B64C3C91230F2C93409117
:102CE000552C421734F484E699E18083918381E086
:102CF0000895022E000C330B552741950CF4509586
:102D00002417350734F482E998E18083918381E0C8
:102D10000895E091562C20E1E29FF0011124EE5D30
:102D2000FB4CE80FF91F80E4808381E0089580E088
:102D300008959FE0499FF0011124EE55FA4C9085CB
:102D4000923009F44CC09450923008F448C070E0BE
:102D5000660F771FFB01EE59FB4C40815181FA0150
:102D60003197EB39F143D8F1E82FF0E044365105C3
:102D7000B4F41216B4F0EA55F64C20818091542C2C
:102D80008217B4F4443651059CF46E597B4C84E6AA
:102D900090E0DB018D939C93108281E0089527FFE2
:102DA000EACFDF01AA55B64C8C91280F2C93E3CFC4
:102DB000022E000C330B992781950CF4909528175F
:102DC00039077CF44933514364F06E597B4C88E3F6
:102DD00091E3DB018D939C93108281E0089580E064
:102DE000089581E00895AF92BF92CF92DF92EF9263
:102DF000FF920F931F93CF93DF93C82F0E94EC2570
:102E00008C2F8295807F3CE2F32EF80E4CE3E42E6B
:102E1000E80ECC24C394D12CD0E08E01000F111FFA
:102E2000C8018E59964C5C010A5C154C0E941C2608
:102E30008C219D21892B09F44CC02FE741E06F2D97
:102E40008091AF330E949E27F501808191818C2172
:102E50009D21892B39F4F801808191818C299D294C
:102E600080839183CC0CDD1CF394EF10DFCF809135
:102E7000F32ACC0FDD1FCA5CD54C21E030E0082ED0
:102E800002C0220F331F0A94E2F74881598124239C
:102E9000352360E0232BE9F10E941B0D00E021E0C7
:102EA00030E040E06FE78091F32A0E94810C80912E
:102EB000F32A8F5F8031C8F58093F32ADF91CF9199
:102EC0001F910F91FF90EF90DF90CF90BF90AF9048
:102ED00008950E9421268C219D21892B19F220E042
:102EE00040E06F2D8091AF330E949E27F5018081D5
:102EF00091818C219D21892B09F0B4CFF80180812B
:102F0000918196012095309582239323808391832C
:102F1000A9CF0E941B0D00E021E030E040E060E01E
:102F20008091F32A0E94810CC2CF1092F32AC6CF5F
:102F3000AF92BF92CF92DF92EF92FF920F931F93C7
:102F4000CF93DF9300D000D0CDB7DEB76D83E82EEE
:102F5000F12C8FE08E9DF0018F9DF00D1124EE5528
:102F6000FA4C222309F49FC026852E838FE08E9D84
:102F700080018F9D100D11240E551A4CD801189602
:102F80008C911897982F9D7F913009F092C04D81B8
:102F900017966C918E810E94C427F801858588233D
:102FA00009F49DC08091A7330091AE33FD81F017E5
:102FB00008F47CC010E090E0801B910B9C01990FFD
:102FC000440B550B29833A834B835C83CA01B901B7
:102FD0000E94764A20E030E04EEF52E469837A8323
:102FE0008B839C8369817A818B819C810E94DB49E0
:102FF0009B01AC0160E070E080E89FE30E94DB4948
:103000005B016C013D81632F70E0601B710BCB0194
:10301000770FAA0BBB0B89839A83AB83BC83BC015C
:10302000CD010E94764A9B01AC01A982BA82CB8273
:10303000DC8269817A818B819C810E94864B6983C5
:103040007A838B839C8369817A818B819C810E94A6
:10305000484ACB01162F99838091A23A9091A33AC6
:103060000E94F642412F59814038510510F04FE738
:1030700050E08FE08E9DF0018F9DF00D1124EE55F4
:10308000FA4C6781605C8E812696CDBFDEBFDF91F2
:10309000CF911F910F91FF90EF90DF90CF90BF9055
:1030A000AF900C94C42736813E8360CF10E0198224
:1030B000D3CF811114C02D8141E017966C918E8180
:1030C0002696CDBFDEBFDF91CF911F910F91FF906C
:1030D000EF90DF90CF90BF90AF900C949E272696F4
:1030E000CDBFDEBFDF91CF911F910F91FF90EF9089
:1030F000DF90CF90BF90AF900895E82F862F4423A4
:10310000C1F02E2F30E09FE0E99FF0011124EE5531
:10311000FA4C9085933069F4220F331FF901EE5970
:10312000FB4C80819181C29664E670E00E94184950
:10313000862F0895CF93DF93282F22952F7030E0AC
:10314000D901AA0FBB1FA65BB54CCD91DC9111979D
:10315000982F9F70E92FF0E041E050E002C0440F4B
:10316000551F9A95E2F774E0220F331F7A95E1F725
:10317000611116C0409550954C235D234D935C938F
:103180002A59364CE20FF31F9FE0899FD00111248A
:10319000AE55BA4C1A968C918083DF91CF910895E9
:1031A0004C2B5D2B9FEF960F4D935C932A59364C19
:1031B000E20FF31F9D3710F46083EFCF9FE0899FEC
:1031C000D0011124AE55BA4C19968C918083E5CF6D
:1031D000E82F82958F70EF7030E020E0662311F0C9
:1031E0002FE730E040E1849FC0011124E80FF92F60
:1031F000F11DEE0FFF1FEA54F64C20833183089532
:10320000982F882329F081E0913320F09F3711F027
:1032100080E0089508959FEC980F81E0903308F0C6
:1032200080E00895CF92DF92EF92FF920F931F9369
:10323000CF93DF93E091562C8091F22A282F30E033
:1032400090E1E99FD0011124AE5DBB4CA20FB31FEA
:10325000DC91E295E07FCE2FC80F2C5B344DF90155
:1032600090819D17B9F09FE0C99FF0011124EE55A0
:10327000FA4C248530E041E09081911101C040E09A
:1032800003856D2F0E94810CE091F22AF0E0EC5B47
:10329000F44DD0838091F22A282F30E0E091562C13
:1032A00090E1E99FF0011124EA59F64CE20FF31F77
:1032B000D0812C5C344DF90190819D1749F06D2F20
:1032C0000E941B0DE091F22AF0E0EC5CF44DD083FB
:1032D000C090562CD090F22AED2CF12CF0E1CF9E2C
:1032E00080011124F801EE59FA4CEE0DFF1DD0813A
:1032F000DD2309F44FC08D2F8EDF882309F44AC0E7
:10330000D801AA59B64CAE0DBF1D2C914D2F6C2D76
:103310008D2D0E94A00DE091F22AF0E0EC5DF44DBD
:10332000D083D090562C0091F22AE02EF12C90E11F
:10333000D99EE0011124FE01EE51FC4CEE0DFF1D63
:103340001081112309F44BC0812F5ADF882309F41F
:1033500046C0CA59D64CCE0DDF1D2881412F6D2D98
:10336000802F0E94A00DE091F22AF0E0EC5EF44D77
:1033700010838091F22A8F5F803108F045C08093DE
:10338000F22ADF91CF911F910F91FF90EF90DF9084
:10339000CF900895F701EC5DF44D8081882309F406
:1033A000C0CF8FE0C89FF0011124EE55FA4C248560
:1033B00030E041E08081811101C040E0D801AE5D84
:1033C000BB4CAE0DBF1D03856C918D2D0E94810CF1
:1033D000E091F22AF0E0EC5DF44D1082A2CFF7010B
:1033E000EC5EF44D8081882321F2CA59D64CCE0D73
:1033F000DF1D6881802F0E941B0DE091F22AF0E012
:10340000EC5EF44D1082B5CF1092F22ABACF8091C3
:10341000562C0895C29664E670E00E941849862FE3
:1034200008959C012D3981E3380714F02CE931E32C
:10343000C90137FF02C090E080E008959C01235944
:10344000384181E0213D310508F080E008959C017C
:103450002150310981E02B39314308F480E008958F
:10346000EF92FF920F931F93CF93C82F01E010E0CC
:10347000062E02C0000F111F0A94E2F7E82FE29512
:10348000E07FE60FEE2EF12C8FE0E89FF001112493
:10349000EE55FA4C8281863069F08FE08E9DF00106
:1034A0008F9DF00D1124EE55FA4C8281873051F03A
:1034B00080E015C00E94172680239123892B69F391
:1034C00081E00DC0EC2FF0E0EE0FFF1FEE5BF54C3E
:1034D000808191810823192381E0012B49F3CF9149
:1034E0001F910F91FF90EF900895CF93C82FC29531
:1034F000C07FC60FB5DF8111C05C8C2FCF910895BE
:10350000DF92EF92FF920F931F93CF93DF93CDB78C
:10351000DEB7A097CDBFDEBF182F062F7A01E5DFFB
:103520009FE0989FD0011124AE55BA4CF70101904D
:103530000D929A95E1F7D02ED694D69420E8129F5A
:10354000C0011124809640E2D49E9001112440E2F3
:1035500050E0BE016F5F7F4F820F931F0E94633A5E
:10356000037088E0089FF0011124A1E0B0E0AC0FE7
:10357000BD1FEA0FFB1FD70112969C9197FD05C056
:103580008081807F9F70892B8083D70113968C91D7
:1035900087FD0BC020812F708150990B34E0880F7C
:1035A000991F3A95E1F7822B8083D70114968C916D
:1035B00087FF8183D70119968C9187FF8283D7017A
:1035C0001A968C9187FF8383D7019C9197FD04C045
:1035D000848190FB87F98483D7011B969C9197FD8A
:1035E00004C084818078892B8483D7011C969C91A8
:1035F00097FD05C085818C7F9370892B8583D701CA
:1036000011969C9197FD09C02581237FB4E09B9F73
:10361000C00111248C70822B8583D7011E962C91BA
:1036200027FD08C085818F70B0E12B9F9001112488
:10363000822B8583D70118969C9197FD05C08681C2
:10364000887F9770892B8683D70116962C9127FD4A
:103650000BC086818F702150330B94E0220F331FF3
:103660009A95E1F7282B2683D70117969C9197FD11
:1036700004C087818078892B8783D7011D969C9110
:1036800097FD04C0878190FB87F98783110F110F85
:10369000D3941D0DF894CE0101960E94CD3A812F4E
:1036A0000E94DF3A7894A096CDBFDEBFDF91CF9124
:1036B0001F910F91FF90EF90DF9008952F923F920E
:1036C0004F925F926F927F928F929F92AF92BF9232
:1036D000CF92DF92EF92FF920F931F93CF93DF93DE
:1036E000CDB7DEB72D97CDBFDEBF582E682E6294C2
:1036F00030EF6322660E42E2A42E44E3B42E52E67B
:10370000852E54E3952E22EA35E32C873D87712CD4
:10371000262C312C3FE0639EC0011124FC01EE55A4
:10372000FA4CE983FA833696E887F9879101205CA1
:103730003F4F2A873B8730E1539EC00111248E5DA5
:103740009B4CFC01E60FF11DEB83FC83A8955714FD
:1037500009F458C022EA35E38C85281B2D838401A7
:10376000EC84FD846501412C8A859B85880F991F17
:10377000FC01EE59FB4CEE83FF836D81640D862DB9
:103780000E946713882391F1642D872D69DEE885F7
:10379000F9852081F7019681291311C0F101EE0FFF
:1037A000FF1FEE59FB4C20813181F80120833183CA
:1037B000811105C0EB81FC819081F6019083E98144
:1037C000FA812685F7019685291310C0EE81FF81C5
:1037D00020813181F801E058FF4F20833183882315
:1037E00029F0EB81FC818081F60180834394FFEF17
:1037F000CF1ADF0A2FE0E20EF11C0E5F1F4F30E1FF
:103800004312BBCF739480E1A80EB11CEC85FD85FB
:10381000E051FF4FEC87FD87F0E28F0E911C24E012
:10382000721294CF2D96CDBFDEBFDF91CF911F9145
:103830000F91FF90EF90DF90CF90BF90AF909F904F
:103840008F907F906F905F904F903F902F90089552
:10385000CF93DF93D82FC0E06C2F8D2F2FDFCF5F5A
:10386000C031D1F7DF91CF9108957F928F929F92CF
:10387000AF92BF92CF92DF92EF92FF920F931F937E
:10388000CF93DF93982E8091562CE2DF24E4A22E72
:103890002BE2B22E34E3C32E3BE2D32E80E1989E7E
:1038A000800111240E5D1B4CD0E0C0E044E6E42E04
:1038B000F12C88248A946C2F8091562C16DE782E59
:1038C0006C2F892D12DE282FE091562C80E1E89F85
:1038D000F0011124EE5DFB4CEC0FFD1FA72DB0E0B5
:1038E000AA0FBB1FAE59BB4C8D919C91B7010E9492
:1038F00018496083F50181925F01F60181926F01A1
:10390000E22FF0E0EE0FFF1FEE59FB4C808191811A
:10391000B7010E941849F80161938F012196C031C7
:10392000D10549F69092562CDF91CF911F910F91BE
:10393000FF90EF90DF90CF90BF90AF909F908F90CF
:103940007F900895BF92CF92DF92EF92FF920F93F4
:103950001F93CF93DF9300D000D0CDB7DEB76C01BB
:10396000B62E142F2D832FE3261728F0009781F011
:10397000019709F4D9C02696CDBFDEBFDF91CF9164
:103980001F910F91FF90EF90DF90CF90BF9008951F
:10399000E62EF12C8FE0689FA00111244E555A4C61
:1039A00049835A83DA0118968C911897982F9D7F36
:1039B000913009F08FC0412F17966C91179716968A
:1039C0008C910E94C427E981FA818585882399F228
:1039D0008091A733F091AE33F9831F1708F455C0D7
:1039E0002F2F30E02D833E8390E0821B930B9C01B0
:1039F000990F440B550B29833A834B835C83CA018F
:103A0000B9010E94764A20E030E04EEF52E469832B
:103A10007A838B839C8369817A818B819C810E94CC
:103A2000DB499B01AC0160E070E080E89FE30E940D
:103A3000DB49B62E072F6C01412F50E08D819E810E
:103A4000481B590BCA01550FAA0BBB0B89839A83DC
:103A5000AB83BC83BC01CD010E94764A9B01AC01C3
:103A6000B9820A83CB82DC8269817A818B819C81D5
:103A70000E94864B69837A838B839C8369817A81D8
:103A80008B819C810E94484A6B018091A23A90915F
:103A9000A33A0E94F642A6014038510510F04FE7C4
:103AA00050E08FE08E9DF0018F9DF00D1124EE55BA
:103AB000FA4C6781605C86812696CDBFDEBFDF91C0
:103AC000CF911F910F91FF90EF90DF90CF90BF901B
:103AD0000C94C427811117C0212F41E0A981BA811C
:103AE00017966C91179716968C912696CDBFDEBFD0
:103AF000DF91CF911F910F91FF90EF90DF90CF90CA
:103B0000BF900C949E27823021F08450823008F0C0
:103B100032CF8FE08E9DF0018F9DF00D1124EE5578
:103B2000FA4C412F6781C7CFC62ED12CBFE06B9FC7
:103B3000C0011124FC01EE55FA4C7F0182818230D4
:103B400038F09AEF980F923018F0843009F062C084
:103B50004D81612F8B2DD1DA482F2FE02C9DC00194
:103B60002D9D900D11249C012E553A4C7901D901BF
:103B700013960C9113971496DC906D2D802F0E9454
:103B8000C427112309F4F7CE8091AF330813F3CE85
:103B9000B3E0BD1508F4EFCE8091562C482F50E0CD
:103BA0006B2D6F70E62FF0E020E1829FC0011124A1
:103BB0009C012E0F3F1F220F331F2A54364CD90170
:103BC0001D921C9221E030E002C0220F331F6A9543
:103BD000E2F7DA01AA0FBB1FA65BB54C4D915C91D1
:103BE00024233523232B41F48A59964CE80FF91FDF
:103BF000D7011A968C9180838D2D2696CDBFDEBF7E
:103C0000DF91CF911F910F91FF90EF90DF90CF90B8
:103C1000BF902BCE8250823008F0ADCE4D81612F07
:103C20008B2D6BDA282F4D81F701648183815DCF65
:103C3000DF92EF92FF920F931F93CF93DF93D82FD2
:103C4000C62FD42E7901F8D78E219F21892B91F090
:103C50000D2D10E04FE0D49EF0011124EE55FA4CEA
:103C6000E281E83060F4F0E08827EE55F24B8F4FA8
:103C70000C946949E6D78E219F21892B49F7DF9162
:103C8000CF911F910F91FF90EF90DF900895D4D7BF
:103C90008E219F21892B99F3E091562C6E2F70E095
:103CA0002D2F30E080E1E89FF0011124CF01820F39
:103CB000931F880F991F8A54964CDC018D919C911B
:103CC0004FE750E0892B11F050E040E0CF01820F28
:103CD000931F880F991F8A54964CDC014D935C9377
:103CE00081E090E002C0880F991FDA95E2F7DB01CE
:103CF000AA0FBB1FA65BB54C6D917C9186239723C1
:103D0000892B91F48FE0809FD001819FB00D112409
:103D1000AE55BA4C41155105B9F019968C91EA5936
:103D2000F64CE20FF31F808321E04115510509F4A1
:103D300020E06D2D81E090E0DF91CF911F910F91F8
:103D4000FF90EF90DF90FECD1A968C91E8CF74D75C
:103D50002D2F30E0E822F9229091562CEF2809F41B
:103D600043C0B0E19B9FF0011124E20FF31FEE0F5F
:103D7000FF1FEA54F64C4FE750E040835183E92F90
:103D8000F0E040E1949FC0011124DC01A20FB31FB9
:103D9000AA0FBB1FAA54B64C4D915C9161E070E034
:103DA00002C0660F771FDA95E2F7EE0FFF1FE65BA2
:103DB000F54C0190F081E02D6E237F23672B09F0F5
:103DC000B3CF6FE0609FF001619FF00D1124EE55BD
:103DD000FA4C41155105A9F061858A59964C280F76
:103DE000391FD9016C93A0CFC0E19C9FF001112431
:103DF000E20FF31FEE0FFF1FEA54F64C1082118200
:103E0000BECF6285EACF8FE0809FF001819FF00DE9
:103E10001124EE55FA4C10816C2F70E0660F771F5D
:103E20006E597B4C112329F18EEC98E1FB018083C4
:103E3000918310E4CD2FD0E0FE01EA55F64C1082BC
:103E400021E0412F6D2D90E080E07CDDE091562C4B
:103E5000B0E1EB9FF0011124EE5DFB4CEC0FFD1F78
:103E60001083EAD68E219F21892B39F021E04FE77C
:103E700060CFDB011D921C92DDCFE3D68E219F2106
:103E800020E040E0892B09F4FACE53CFD5D68E211D
:103E90009F21892B09F454C0ED2FF0E09091562C0E
:103EA000892F90E021E030E002C0220F331FDA9525
:103EB000E2F7DC01AA0FBB1FA65BB54C4D915C91EC
:103EC0002423352374E0880F991F7A95E1F7232B7B
:103ED00099F4DC01AA59B64CBD016E0F7F1F4FE06B
:103EE000409F9001419F300D11242E553A4CD9012D
:103EF00019962C91DB012C938E5D9B4CE80FF91FDA
:103F0000D0E0CC0FDD1FCE59DB4C8881998164E66F
:103F100070E00E94184960838FE0809FF001819FCC
:103F2000F00D1124EE55FA4C4FE764818381DF9147
:103F3000CF911F910F91FF90EF90DF900C94C427C9
:103F400080D68E219F21892B09F499CEED2FF0E0A8
:103F50009091562C892F90E021E030E002C0220F92
:103F6000331FDA95E2F7DC01AA0FBB1FA65BB54C45
:103F70004D915C912423352344E0880F991F4A9585
:103F8000E1F7232B99F4DC01AA59B64CBD016E0F61
:103F90007F1F4FE0409F9001419F300D11242E550F
:103FA0003A4CD9011A962C91DB012C938E5D9B4CD7
:103FB000E80FF91FD0E0CC0FDD1FCE59DB4C888114
:103FC000998164E670E00E94184960838FE0809FC9
:103FD000F001819FF00D1124EE55FA4C40E0A5CF81
:103FE0002BD68E219F21892B09F449CE8091562C06
:103FF000E82FF0E0EE0FFF1FEE5BF54C20813181E2
:104000002E253F25208331836D2F6FDA2091562C8A
:1040100030E0ED2FF0E061E070E002C0660F771F46
:10402000DA95E2F7E901CC0FDD1FDE01AE5BB54C9E
:104030004D915C914E215F21C65BD54CA4E0220FCF
:10404000331FAA95E1F7A82FB0E0888199816823F2
:104050007923452BF9F0672B91F4E901CA59D64C25
:10406000BE016E0F7F1F4FE0409FC001419F900D2A
:1040700011248E559A4CEC018985EB0188832E5DC5
:104080003B4CE20FF31FAA0FBB1FAE59BB4C8D91E7
:104090009C913DCF672B91F4E901CA59D64CBE01E2
:1040A0006E0F7F1F4FE0409FC001419F900D112474
:1040B0008E559A4CEC018A85EB0188832E5D3B4C32
:1040C000E20FF31FAA0FBB1FAE59BB4C8D919C9101
:1040D00078CF8091562CC9CBCF92DF92EF92FF928E
:1040E0000F931F93CF93DF93D82FC22F6801042F14
:1040F00010E02FE0429FF0011124EE55FA4C80852C
:10410000823021F08450823008F095C08FE0809F8B
:10411000F001819FF00D1124EE55FA4C828185301B
:1041200099F00E94DC34811114C08FE0809FF0016F
:10413000819FF00D1124EE55FA4C8181813009F0F8
:104140005AC0CC0FC05C25C072D5C822D922CD2858
:1041500041F3ED2FF0E0EE0FFF1FDF01AC50B54D46
:104160008D919C9111978C0F911DC7FD9A958D9300
:104170009C931197C0E48D919C9111978430910587
:104180007CF5EC50F54D808191818D3F2FEF9207AA
:104190006CF16D2F8091562C63D9811142C08FE054
:1041A000809FF001819FF00D1124EE55FA4C86811D
:1041B000C03409F442C09FE0909FF001919FF00D40
:1041C0001124EE55FA4C4C2F6781DED681E0DF9149
:1041D000CF911F910F91FF90EF90DF90CF900895B6
:1041E00004978D939C931197CF5FC5CF04968083DE
:1041F0009183C150C8CF823091F4B7018C2F87FDD5
:1042000081950E94B71524E0969587952A95E1F748
:104210008F719927C89FC00D1124C05CBACFC05CB4
:10422000B8CF8FE0809FF001819FF00D1124EE55F3
:10423000FA4C8685BDCF80E0CACF81E0C8CF5F92BF
:104240006F927F928F929F92AF92BF92CF92DF92A6
:10425000EF92FF920F931F93CF93DF93682E742EEC
:10426000522E4801C62FD0E08E01000F111FF80119
:10427000EE59FB4CC080D180A42EB12C2FE0429F80
:10428000F0011124EE55FA4C8281853009F4A1C069
:104290000E94DC3481709FE09A9DF0019B9DF00D9F
:1042A0001124EE55FA4C9181923009F09BC0811196
:1042B00010C0B701852D87FD81950E94B7159C011F
:1042C0008F3F910519F010F02FEF30E029313105C3
:1042D00010F429E130E0452D4203C001439F900DC9
:1042E0001124F801EE59FB4C20813181820F931F7C
:1042F0008D39A1E39A0714F08CE991E397FF02C08E
:1043000090E080E00E591B4CF80180839183C296A7
:1043100024E630E0B9010E941849E62F562E80911C
:104320000B20882379F1CE018C5A944D4C01DC018D
:104330008C91882339F18FE08A9DD0018B9DB00D3F
:104340001124AE55BA4C18968C918230D9F0845015
:104350008230C0F0CC52D44D5880C601C296B9010B
:104360000E941849862F452D6E2F0E9486138823A0
:10437000F9F0B4E65B9EC0011124F80180839183BB
:10438000D4011C92662D8091562C6AD8282F41E0CA
:10439000652D872D0E9498178091562CB0E18B9F38
:1043A000C00111248E5D9B4C860D911DFC01508235
:1043B00081E0DF91CF911F910F91FF90EF90DF90FF
:1043C000CF90BF90AF909F908F907F906F905F90B5
:1043D00008952DD488229922892809F459CF81E0A3
:1043E00090E058CF811175CF22EB30E0911173CF5F
:1043F00024E630E070CF8F929F92AF92BF92CF921F
:10440000DF92EF92FF920F931F93CF93DF93C82F0A
:10441000D62EC42E4901F894CDD3D82F8C2FD1D3CA
:104420005C017894DD23F9F08C012D2F4C2D6D2D3E
:104430008C2F0E945216811116C02D2F4C2D6D2DE0
:104440008C2F0E94991681110EC0750184012D2FA9
:104450004C2D6D2D8C2F40DE811105C02D2F4C2D44
:104460006D2D8C2FECDEDF91CF911F910F91FF907E
:10447000EF90DF90CF90BF90AF909F908F90089576
:104480000F931F93CF93DF9300D0CDB7DEB7A4D3A4
:104490001A8201E010E06A818091562C26D88B8325
:1044A0008F7389839801482F6B818A81A4DF9801DB
:1044B00049816B818A81BCDB000F111F8A818F5F6C
:1044C0008A83803141F72396CDBFDEBFDF91CF9144
:1044D0001F910F910895E091562CE295E07FE80F2F
:1044E0008FE0E89FF0011124EE55FA4C9085923050
:1044F00031F0945081E0923018F080E0089581E02E
:104500000895DF92EF92FF920F931F93CF93DF9363
:10451000D82ED62FF42E082F02950F70182F1F704B
:10452000612F802F0E94301AE82EC0E0F110C0E405
:10453000CD0D8091562C081348C0812FD8D38823E5
:1045400021F0812FC8DF882349F12C2F30E08091A2
:104550000B20A9014C52544DD901AC5AB44D8823BB
:1045600029F1F11023C08FE0D89EF0011124EE55FF
:10457000FA4C80858230D1F084508230B8F0FA0154
:10458000D08381E08C93EF1009C020E1029FF001FD
:104590001124EE5DFB4CE10FF11DD083DF91CF9133
:1045A0001F910F91FF90EF90DF900895220F331F1E
:1045B000F901EE59FB4C24E6D29FC00111248083FF
:1045C0009183FA01D0831C92DECF2C2F30E0F901C9
:1045D000EE0FFF1FEE59FB4C44E6D49FC00111249F
:1045E00080839183F901EC52F44DD0832C5A344DE1
:1045F000F9011082EF10D2CFF0E10F9FC00111241A
:104600008E5D9B4C810F911DFC01D083C7CFDF9243
:10461000EF92FF920F931F93CF93DF93D82E062F25
:10462000142FD22F8091AF3392EAE92E95E3F92E21
:10463000C0E08D1181C0662311F0633029F51C5252
:10464000113210F5E12FE295EF70F0E01F7081E07C
:1046500090E002C0880F991F1A95E2F7EE0FFF1F36
:10466000DF01AE59B64C2D913C911197282B392B77
:104670002D933C93EA5CF54C20813181DD2361F080
:10468000822B932B80839183DF91CF911F910F9188
:10469000FF90EF90DF90089580959095822393236B
:1046A00080839183F1CF882309F455C0F701848179
:1046B00081133BC083818D1156C08281825082302C
:1046C00008F04EC0011119C06D2F8C2F0E949A184E
:1046D0006D2F8C2F0E94E81828C096859D11E6CF7B
:1046E000013041F48150843008F741E06D2F8C2F68
:1046F00008DFDCCF8111DACFF8CF0330B1F460E00E
:104700008C2F0E949A18EC2FE295EF70F0E1EF9F4A
:10471000C0011124EC2FEF70E80FF92FF11DEE0FFF
:10472000FF1FEA54F64C10821182CF5FFFE0EF0EBC
:10473000F11CC03409F4A8CFF70187818113B6CFEB
:10474000808596819D11C9CF013009F0ACCF815091
:10475000853008F0ABCF40E06D2F8C2FD2DEA6CF96
:10476000013019F7B1CF25E0D21210C08C2F8295FD
:104770008F70E0E18E9FC00111248E599A4C2C2F2E
:104780002F70820F911DFC01D083CFCFF2E0DF129A
:10479000CCCF8C2F82958F7020E1829FC001112495
:1047A0008E519C4CECCFE0E4F8E08781837F8783D7
:1047B000878187831092592CE0915A2CF0915B2CC1
:1047C00019946F927F928F929F92AF92BF92CF92E5
:1047D000DF92EF92FF920F931F93CF93DF9380911D
:1047E0000C2090910D20889680930C2090930D20A2
:1047F00080936808909369088091602C9091612C57
:10480000A091622CB091632C0196A11DB11D8093E3
:10481000602C9093612CA093622CB093632C81E068
:104820008093450680E140E050E830E020E092E0EF
:10483000909346066091480662FD9DC0BA01262B02
:10484000372B5695479590934506815089F780916F
:10485000582C90E0FC01EE0FFF1FEF57F54C208322
:10486000318301966AE070E00E9418498093582CC9
:1048700090E120E030E8712C612C70E060E082E093
:10488000809346064091480642FF78C0A901642BF8
:10489000752B80934506809346064091480642FF5B
:1048A00070C0A901642A752A36952795809345061C
:1048B000915031F781E080934606A0905E2CB09035
:1048C0005F2CE0905C2CF0905D2CE1E7FAE330E0A7
:1048D00020E041E050E08824839499249A94C30115
:1048E00084239523A0E0892B09F0A4E0CB01842345
:1048F0009523892B09F048C090E081E085010423CD
:104900001523012B09F480E0A82BA92BC7018423D0
:104910009523892BD9F580E0A82B0A2E000CBB0B20
:10492000AE55BF4D1C918081112311F0123884F5D2
:10493000843610F48F5F8083440F551F2F5F3F4FE5
:1049400031962031310559F660925E2C70925F2CC1
:1049500060935C2C70935D2CDF91CF911F910F9130
:10496000FF90EF90DF90CF90BF90AF909F908F908F
:104970007F906F90089570E060E061CF50E040E07C
:1049800086CF50E040E08ECF98E0B7CF82E0C4CF32
:1049900090E00196D901AB5DBF4C0C9117FF30C080
:1049A00086309105B4F089010F59154CE801D88083
:1049B000DA94D8828901000F111F04541C4CE801BD
:1049C000C880D9808C0D9D1D888399839C9210820C
:1049D000B3CF0F3F99F4D901AF59B54C1C91115089
:1049E0001C93D901AA0FBB1FA454BC4C0D911C9160
:1049F0001197800F911F8D939C93E9CF9C92E7CFE5
:104A000086309105ACF089010F59154CE801D8802A
:104A1000D394D8828901000F111F04541C4CE80163
:104A2000C880D9808C0D9D1D888399838C92CFCFAF
:104A3000013031F4D901AF59B54C1C911F5FD0CF73
:104A40008C92C5CFCF93DF93E0E0F6E044E0428361
:104A500022E0228331E0328368E0628390E1928336
:104A600050E25283A0EBB0E04C9388E1808B2C9312
:104A7000808B3C93808B6C93808B9C93808B5C931E
:104A8000808BC0E4D6E0398329834A833D832E831B
:104A9000E1E6FAE3DF01892F1D928A95E9F7E5E265
:104AA000F0E3DF011D929A95E9F740E250E06FEFE5
:104AB00070E08CEB93E30E94994D1092953A10921E
:104AC000963A10925C3A10925D3A1092993A10928E
:104AD0009A3A1092973A1092983A1092603A10923D
:104AE0005F3A10929B3A10925E3A80E498E00E94FE
:104AF000A14061EE73E280E498E00E94E04063ED43
:104B000073E280E498E00E940D41E0E4F8E08181E6
:104B1000887F818388E290E080A791A787818C7F3E
:104B200087838781836087838781837F878387816A
:104B3000878378948081807F876080831092602C47
:104B40001092612C1092622C1092632C80E4898365
:104B5000DF91CF9108959B014091592C41111DC0C7
:104B600041E04093592C80935A2C90935B2C809178
:104B7000600890916108280F391F20936A083093CC
:104B80006B0880914708837F80934708809147088E
:104B900088608093470881E0089580E0089510922E
:104BA000592CE0E4F8E08781837F878387818783BE
:104BB00081E00895E82FF0E0EF59F54C80811082F4
:104BC0000895E82FF0E0EE0FFF1FE454FC4C8081C5
:104BD0009181108211820895E1E8FAE325E93AE330
:104BE00090E080E041915191842B952B2E173F0747
:104BF000C9F780935C3A90935D3A2091953A309151
:104C0000963AAC0140955095422353234093993AEC
:104C100050939A3A20953095282339232093973A38
:104C20003093983A8093953A9093963A089580916C
:104C30005C3A90915D3A08958091973A9091983AB4
:104C400008958091993A90919A3A08959091080622
:104C500092FB992790F981E098278091080681FFBF
:104C600092608091080680FF94608091080683FF1F
:104C700098608091080684FF90618091080685FF06
:104C800090622091572C30E0F901EE5AF54C908358
:104C9000C90101966AE070E00E9418498093572C80
:104CA000E2E5FAE32CE53AE380E09191892B2E17B7
:104CB0003F07D9F78093603A90915F3A282F20956B
:104CC000292320939B3A9095982390935E3A809362
:104CD0005F3A90E008958091603A90E00895809165
:104CE0005E3A90E0089580919B3A90E00895E82F15
:104CF000F0E0EF58F54C81E09081943608F080E0C8
:104D000008950E940948F89480E82FEF3FE891E069
:104D1000215030409040E1F700C000008150A9F7D9
:104D20008AEC9CEAA2E4BCED8093133D9093143D81
:104D3000A093153DB093163D0C94A94280E190E2FA
:104D40008093A23A9093A33AE0E8F6E091E0918351
:104D500082E0818328E0218324E0228396831092DD
:104D60006D2C10926E2C8683089581E020916D2C1D
:104D700030916E2C232B09F080E008950F931F9340
:104D8000CF93DF9300D000D0CDB7DEB7009160089D
:104D9000109161080D831E8380916A2C90916B2C79
:104DA0008017910708F06FC080916A2C90916B2C4E
:104DB0004091662C5091672C6091682C7091692C01
:104DC000081B190BC801B0E0A0E08C019D01041B79
:104DD000150B260B370B09831A832B833C83C901E0
:104DE000B80128E030E040E050E00E944D49409199
:104DF000662C5091672C6091682C7091692CC901C8
:104E0000032E000CAA0BBB0B840F951FA61FB71F08
:104E10008093662C9093672CA093682CB093692C98
:104E20002C5F3F4F29303105B0F48091642C8130E4
:104E300091F48093652C8091A63A882361F080914B
:104E4000953390919633892B31F481E090E08093F3
:104E50009533909396330D811E8100936A2C1093A5
:104E60006B2C8091662C9091672CA091682CB0914E
:104E7000692CBC01CD012696CDBFDEBFDF91CF915D
:104E80001F910F91089520916A2C30916B2C4091C5
:104E9000662C5091672C6091682C7091692C81E18F
:104EA00090E0821B930B97FF03C091958195910928
:104EB0000D811E81800F911F86CF8091662C90916D
:104EC000672CA091682CB091692C08958091652C75
:104ED000089554DF8091642C32D380916C2C811121
:104EE00005C01092E13381E080936C2C8091642C9A
:104EF0008F5F8093642C88311CF01092642C08958D
:104F000063E00E94F748923029F48091E1338F5F8B
:104F10008093E13308951092642C1092662C1092C5
:104F2000672C1092682C1092692C10926A2C1092A7
:104F30006B2C1092652C0895FFD231CECF93DF9366
:104F400000D00F92CDB7DEB790E8411190E9392F2C
:104F500032953F7039838F70892B8A836F776B838B
:104F60002F772C8302DF882349F0BE016F5F7F4FCC
:104F70008091A23A9091A33A0E94CC422496CDBF50
:104F8000DEBFDF91CF910895CF93DF9300D00F92D2
:104F9000CDB7DEB79BE099838F70806B8A836F7784
:104FA0006B834F774C83E1DE882349F0BE016F5F4E
:104FB0007F4F8091A23A9091A33A0E94CC422496CE
:104FC000CDBFDEBFDF91CF910895EF92FF920F9397
:104FD0001F93CF93DF9300D00F92CDB7DEB7F82E9B
:104FE0008B0181E094E0E92EE3E0EF1520F1FF2052
:104FF000C1F095E09983D8019C919A831B821C8211
:10500000B2E0FB1231C086E08983F80181818B8395
:10501000BE016F5F7F4F8091A23A9091A33A0E94A8
:10502000CC422496CDBFDEBFDF91CF911F910F916F
:10503000FF90EF900895E982F80181918A83D80169
:1050400011968C918B830D5F1F4F81818C83BE01E4
:105050006F5F7F4F8091A23A9091A33A0E94CC4219
:10506000BDEFFB0E80E0C0CFF3E0FF12D1CF88236D
:1050700051F0F982D80111968C9111978B83129679
:105080008C918C83C5CF87E08983F4CFEF92FF9218
:105090000F931F93CF93DF9300D00F92CDB7DEB75E
:1050A000E62F69837A838B839C83E450EC30E0F4B1
:1050B000F0E08827E655F24B8F4F0C9469498A81BE
:1050C0008A3FE1F08C3FF9F0883F71F48091A200B3
:1050D0008B7F8093A20081E080936C2CFADE80911C
:1050E000A20084608093A2002496CDBFDEBFDF9132
:1050F000CF911F910F91FF90EF9008950CDF81E009
:1051000080936C2CF1CF18DF10926C2CEDCF1A81AC
:105110001F70FB80EC808091AF33811309C083E066
:105120008F1530F08FE7E81203C08F2D0E94351CD9
:1051300001E02E2D4F2D60E0812F69DAD5CF8A81D5
:1051400000E02C814B8163E08F7061DACDCF1A8152
:105150001F70FB80EC8001E02E2D4F2D61E0812F30
:1051600056DA8091AF33811309C083E08F1530F098
:105170008FE7E81203C08F2D0E94351C173009F00D
:10518000B3CF6E2D8F2D57D2AFCFCE0101960E9497
:105190007037AACFCE0101960E948738A5CFCE01E5
:1051A00001960E944E38A0CFCE0101960E94F3379F
:1051B0009BCF81E008958091A63A882339F07DDE67
:1051C000BC017695679583EF98E2C5CC76DEBC018D
:1051D000660F771F680F791F7695679576956795A7
:1051E00083EF98E2B8CC2F923F924F925F926F92EA
:1051F0007F928F929F92AF92BF92CF92DF92EF9267
:10520000FF920F931F93CF93DF9300D000D0CDB7C1
:10521000DEB78091A43A9091A53A029709F099C01F
:105220004090702C8FEF840D411001C08FE0A82EAC
:10523000B12C28EA822E23E3922E49EA5AE34983CD
:105240005A8335E7E32E33E3F32E49EDC42E4CE2C7
:10525000D42E10E000E05CE0252E512C6FE7662E86
:10526000712CD4013D904D010B83330C330C84E23F
:10527000800F380EE981FA818191E983FA8399E000
:10528000980F933108F47BC018160CF078C06AE0D0
:105290000E94F748843008F083E0E82FF0E0E15402
:1052A000FF4D8091702C60810E94EB48911183C06A
:1052B0004FE750E04D835E83D601ED916D01209E56
:1052C000C001219E900D1124E80FF92FF11D84E0FB
:1052D000EE0FFF1F8A95E1F7EB59FF4CEA0DFB1D1E
:1052E0008081882329F02FE740E0632D87E026DEC8
:1052F000ED81FE813097B1F0D70116962C912E9F4B
:10530000C0012F9F900D1124B3010E9404496C83AA
:10531000262F41E0632D87E011DE6B81665F4C81B3
:1053200087E032DE0F5F1F4FB8E0EB0EF11C043058
:10533000110509F096CF8091A23A9091A33A0E946C
:10534000F6428091702C91E0980F8F30B9F19093D4
:10535000702C2696CDBFDEBFDF91CF911F910F91AC
:10536000FF90EF90DF90CF90BF90AF909F908F9085
:105370007F906F905F904F903F902F900895D6014F
:10538000EC91209EC001219E900D1124E80FF92F71
:10539000F11D94E0EE0FFF1F9A95E1F7EB59FF4CDA
:1053A000E40DF51DB081BC83BB2329F0EB2FF0E0A9
:1053B000ED83FE8381CF1D821E827ECF1092702CE2
:1053C00081E080936F2CC5CFAF92BF92CF92DF92D6
:1053D000EF92FF920F931F93CF93DF9308EA13E3AB
:1053E00089EDA82E8CE2B82EA5E7B3E345E650E39D
:1053F00030E020E09FE3D92E7FE7E80119928E018B
:1054000090E080E0FC01E55FFA4F7C01E40EF51EC0
:1054100060E1C490E701C9927E016150319661114B
:10542000F8CF4096803C910569F7F50111925F0134
:1054300015961C9215971796DC92179714961C9246
:10544000149716967C93169711961C92119718969E
:10545000245F3F4F40545F4F2033310571F6109267
:10546000BB33E5E3F0E380E2DF011D928A95E9F7C3
:10547000E7E9F3E380E1EF0119928A95E9F7E5E5C1
:10548000F0E384E0DF011D928A95E9F78FD4E5E32C
:10549000F0E3A7E9B3E34CE958E19FE32CE931E3FA
:1054A0008FE7119211921D92468B578B1B969C93FE
:1054B0001B972687378717968C931797C0E3ED3392
:1054C000FC0779F78093A73A1092772C8093782C79
:1054D0001092A83A10929533109296338AE58093F1
:1054E000AC331092A63A1092A43A1092A53ADF91EA
:1054F000CF911F910F91FF90EF90DF90CF90BF90D1
:10550000AF9008958091A43A9091A53A892B51F4D7
:1055100081E090E08093A43A9093A53A4FE76EE043
:1055200087E032CD1092A43A1092A53A1092702CD6
:1055300040E06EE087E028CD1092702C0895CF9364
:10554000C82F8091A43A9091A53A8130910551F4E9
:10555000C11125C082E090E08093A43A9093A53ACF
:10556000CF9141CE0297D9F4B1DC882381F08C2F02
:10557000CC0F990B029666E070E00E941849892BC7
:1055800071F461E070E08BED98E2CF91E4CA8C2F6A
:1055900066E00E94F748911102C0CF9124CECF91CE
:1055A0000895282F30E0F901E752F34D80819CE007
:1055B000929FA001939F500D1124840F952F911D50
:1055C00024E0880F991F2A95E1F78B599F4C860F8D
:1055D000911DFC0180810895282F30E0F901E752E8
:1055E000F34D80819CE0929FF001939FF00D112478
:1055F0008E0F9F2F911D24E0880F991F2A95E1F7A8
:105600008B599F4C860F911DFC0140830895E82F14
:10561000F0E0E855FC4C60830895E82FF0E0E85591
:10562000FC4C808108954FE76FE087E0ADDC40E0FF
:105630006FE087E0A9CCE82F8CEE8E0F8430C0F4A9
:10564000E451FF0BB3E0EE0FFF1FBA95E1F7EB5803
:10565000FC4C81E0611180E08483809195339091CE
:1056600096330197E9F40E94DF340497C9F48FC0A0
:1056700088EE8E0F8430A8F4E851FF0BA3E0EE0F04
:10568000FF1FAA95E1F7EB58FC4C81E0611101C0C6
:1056900080E085838091953390919633019719F33B
:1056A00008958AE98E0F803160F52E2F2656330B30
:1056B000C90123703327959587959595879541E086
:1056C000611101C040E053E0220F331F5A95E1F70A
:1056D0002B583C4CF9018230910579F083309105CB
:1056E00071F0019711F040830895418380919533C3
:1056F000909196330197A1F6B6CF428308954383E4
:105700000895EF3079F480911D20882349F281E0DB
:105710008093A63A84E090E00E94E4349CD11092F9
:105720001D2081CFEE3009F0BBCF662371F0809150
:10573000A43A9091A53A892B09F0B2CF81E090E08C
:105740008093A43A9093A53A08951092A43A1092A7
:10575000A53A1092702C10926F2CA2CF8430A0F03A
:105760009CEF980F943050F098EF980F943048F0D9
:105770008C50843048F483E090E0089581E090E01C
:10578000089582E090E0089590E080E008954F92BF
:105790005F926F927F928F929F92AF92BF92CF92C1
:1057A000DF92EF92FF920F931F93CF93DF9300D07E
:1057B000CDB7DEB7E091D82CF0E0E45EFD4FE49188
:1057C000E091AD33F0E0E45EFD4FE49185E7C82E53
:1057D00083E3D82E95E3A92E90E3B92E29ED822EEE
:1057E0002CE2922E1A82612C30E8732E46EF442E62
:1057F00044E0542E54E6F52EF60184818111A1C0B7
:10580000E091D82CF0E0E45EFD4F84918B83E09131
:10581000AD33F0E0E45EFD4F1491F6018181882301
:1058200009F493C04B8168E78A810E940A0D8A813E
:10583000F4DEB30102C0769567958A95E2F7412FB1
:105840008A810E94E80C8A81E8DE849D9001859D12
:10585000300D1124F501219331935F01F401819101
:105860004F01B30102C0769567958A95E2F7412F03
:105870008A818C5F0E94E80CF40131972081249D7D
:10588000C001259D900D1124F50186839783FA812F
:10589000F85FF983F601848181115CC04B8161E07E
:1058A00089810E940A0DE12E00E021E030E040E015
:1058B000F601668189810E94CD0BF60186818F9D5C
:1058C000C0011124F50186879787FA81F45FF98377
:1058D000F6018581882309F442C04B816FE08981FC
:1058E0000E940A0DE12E0EE721E030E041E0F601D2
:1058F000678189810E94CD0BF60187818F9DC00150
:105900001124F501868B978BFA81FF5FFA8388E07B
:10591000C80ED11CF43009F06FCF2396CDBFDEBF87
:10592000DF91CF911F910F91FF90EF90DF90CF907B
:10593000BF90AF909F908F907F906F905F904F90AF
:105940000895EAE0EB831AE068CF60E08A810E9464
:105950001B0D6DCF60E089810E941B0DA4CF60E01C
:1059600089810E941B0DBECF8F929F92AF92BF92F2
:10597000CF92DF92EF92FF920F93CF933FD26C01C1
:1059800095E3A92E90E3B92EC0E0EE24E394F12C28
:105990003CE9832E31E3932EC6018E219F21892B72
:1059A00001F16EE38C2F0E941B0D00E021E030E03E
:1059B00040E060E08C2F0E94810CF5018192919271
:1059C0005F01EE0CFF1CCF5FC03131F7CF910F911B
:1059D000FF90EF90DF90CF90BF90AF909F908F900F
:1059E000089560E08C2F0E941B0DDFCFEF92FF9295
:1059F0000F931F93CF93DF9385E3E82E80E3F82E78
:105A0000C0E014E66C2F8091BB33CBDDD82F882308
:105A1000E9F06AE08C2F0E941B0D00E021E030E0ED
:105A200040E06D2F8C2F0E94810CD19FC00111246A
:105A3000F701819391937F01CF5FC03119F7DF9117
:105A4000CF911F910F91FF90EF90089560E08C2F00
:105A50000E941B0DE2CF8091953390919633823056
:105A6000910531F08330910521F0019719F48FCE23
:105A70007BCFBCCF0895DF92EF92FF920F931F93DD
:105A8000CF93DF93182FC82FD0E0FE01E956FC4CCE
:105A9000D080E091D82CF0E0E45EFD4F0491E091DD
:105AA000AD33F0E0E45EFD4FF49058DE82309105B6
:105AB00009F495C010F5892B59F573E0CC0FDD1F63
:105AC0007A95E1F7CB58DC4C8C81882311F06AE0A1
:105AD000F62E812FA2DD60E070E802C07695679512
