:1000000022C3000065C3000063C3000061C3000099
:100010005FC300005DC300000C943B370C946E3747
:100020000C94A1370C94D43753C3000051C3000083
:100030004FC300004DC300000C94F4380C942C39CD
:100040000C9464390C949C390C94D4390C940C3A6B
:100050000C94443A0C947C3A0C94B43A0C94EC3AD8
:1000600037C3000035C3000033C3000031C30000B4
:100070002FC300002DC300002BC3000029C30000C4
:1000800027C3000025C3000023C3000021C30000D4
:100090001FC300001DC300001BC3000019C30000E4
:1000A00017C3000015C3000013C3000011C30000F4
:1000B0000FC300000DC300000BC300000C94543D9F
:1000C0000C948C3D0C94C43D0C94FC3D0C94343E3B
:1000D0000C946C3EFDC20000FBC20000F9C200009F
:1000E000F7C20000F5C20000F3C20000F1C2000038
:1000F000EFC20000EDC20000EBC20000E9C2000048
:10010000E7C20000E5C20000E3C20000E1C2000057
:10011000DFC20000DDC20000DBC20000D9C2000067
:10012000D7C20000D5C20000D3C20000D1C2000077
:10013000CFC200000C94243B0C945C3B0C94943B89
:100140000C94CC3B0C94043C0C943C3C0C94743CC0
:100150000C94AC3C0C94E43C0C941C3DB9C20000E3
:10016000B7C20000B5C20000B3C20000B1C20000B7
:10017000AFC20000ADC20000ABC20000A9C20000C7
:10018000A7C20000A5C20000A3C20000A1C20000D7
:100190009FC200009DC200009BC2000099C20000E7
:1001A00097C2000095C2000093C2000091C20000F7
:1001B0008FC200008DC200008BC2000089C2000007
:1001C00087C2000085C2000083C2000081C2000017
:1001D0007FC200007DC200007BC2000079C2000027
:1001E00077C2000075C2000073C2000071C2000037
:1001F0006FC200000C947D466BC200000101020238
:10020000020203030405050607080A0B0D0F121569
:10021000181C21262C333C46515E6E7F01010101E2
:1002200001010101010101020202020202020202B5
:100230000202020202030303030303030304040490
:100240000404040405050505050606060606070759
:1002500007080808080909090A0A0B0B0B0C0C0D02
:100260000D0E0E0F1010111112131414151617186D
:1002700019191A1C1D1E1F202123242527282A2B6B
:100280002D2F31333537393B3D404245474A4D509C
:1002900053565A5D6164686C71757A7F000000FF87
:1002A0000000FF0000FF0100FF0300FF0600FF0940
:1002B00000FF0E00FF1400FF1C00FF2500FF2C00B4
:1002C000FF3800FF4700FF5500FF6700FF7B00FF7E
:1002D0008900FFA000FFBA00FFD600FFF200FAFF7E
:1002E00000EDFF00E1FF00D4FF00C7FF00BFFF00EB
:1002F000B2FF00A5FF0099FF008CFF007FFF007791
:10030000FF006AFF005DFF0050FF0043FF003BFF5E
:10031000002EFF0021FF0015FF0008FF0000FF0076
:1003200000FF0000FF0000FF0000FF0000FF0000D2
:10033000FF0000FF0000FF0200FF0300FF0600FFB8
:100340000900FF0E00FF1600FF2100FF2F00FF3CF9
:1003500000FF5100FF6F00FF9400FFC400FFFF008B
:10036000E9FF00CBFF00B0FF0099FF0082FF00759E
:10037000FF0062FF0050FF0041FF0034FF002CFF30
:100380000022FF0019FF0012FF000CFF0007FF0012
:1003900005FF0002FF0001FF0000FF0000FF040056
:1003A000FF1000FF1D00FF2A00FF3700FF3F00FF86
:1003B0004C00FF5900FF6600FF7200FF7F00FF87BF
:1003C00000FF9400FFA100FFAE00FFBA00FFC300D2
:1003D000FFD000FFDD00FFE900FFF600FFFF00FF98
:1003E000FF00DBFF00C4FF00AAFF0094FF0085FFB1
:1003F000007FFF006FFA006FED0053E1003CD40076
:100400002FC70020C70016BF0010B2000FA5000EB6
:1004100099000D8C000C7F000BE1DCBC1203360050
:100420003600360036003600360036004100000047
:100430002A034D006900640069002000460069003D
:1004400067006800740065007200200054007700A7
:100450006900730074006500720000001C03440012
:100460004A0020005400650063006800200054002A
:100470006F006F006C0073000000040309040902A0
:10048000650002010080F009040000000101000085
:10049000092401000109000101090401000201030E
:1004A00000000724010001410006240201010006AA
:1004B00024020202000924030103010201000924AD
:1004C00003020401010100090501024000000000CF
:1004D00005250101010905820240000000000525F3
:1004E00001010312011001000000408025070001F6
:1004F00000010200010000000000000000000000F8
:1005000000000000007F0000007F0000007F00006E
:10051000007F000000000000007F000000000000DD
:10052000007F0000000000000000000000005500F7
:100530007F00007F007F00005500006400006E0017
:10054000007F0000001455007F00007F0000007F46
:100550000000235555557F7F0000006E7F6400002A
:10056000000055555555146E007F0A6414002D7F08
:10057000006E2D4B237F007F007F006E7F007F0089
:100580007F7F007F007F007F7F7F007F7F7F007FF6
:100590007F7F7F7F7F557F647F557F557F557F5558
:1005A0007F6E7F647F07634236B79BD8A71A39688E
:1005B0005618AEBAAB558C1D3CB7CC5763BD6DED2C
:1005C000FD753EF6177231BF000000803F05A84C54
:1005D000CDB2D44EB93836A9020C50B991868808EC
:1005E0003CA6AAAA2ABE000000803F08000000BE68
:1005F000922449123EABAAAA2ABECDCCCC4C3E00D6
:10060000000080BEABAAAAAA3E00000000BF000006
:1006100000803F0000000000084178D3BB4387D131
:10062000133D190E3CC3BD4282AD2B3E68EC827671
:10063000BED98FE1A93E4C80EFFFBE01C4FF7F3FD2
:1006400000000000000011241FBECFEFCDBFDFE38C
:10065000DEBF00E00CBF18BE19BE1ABE1BBE8091E3
:10066000780083FF1CC08091AB3B9091AC3BA09184
:10067000AD3BB091AE3B8A3C9C4AA244BC4D79F460
:100680001092AB3B1092AC3B1092AD3B1092AE3B44
:1006900081E08CBFE0910D20F0910E20199510E2C1
:1006A000A0E0B0E2E0EAF7E900E00BBF02C007908B
:1006B0000D92A836B107D9F71BBE2BE3A8E6B0E22E
:1006C00001C01D92AB3AB207E1F7E6D00C94A34B00
:1006D00097CCEF92FF920F931F93CF93DF93CDB7F9
:1006E000DEB72897CDBFDEBF8091DE39843009F0B8
:1006F0003FC00E9425338330910509F463C008F0A0
:1007000041C08130910509F446C0029709F454C0F4
:100710000E940025882349F180913A3990913B3914
:100720000E9421410E9483428091A2008C7F80938D
:10073000A20010E000E0F12CE12CBE016F5F7F4FC2
:1007400080913A3990913B390E943441811140C0E7
:100750000F5F1F4F0837110528F4A895E11482E0B8
:10076000F80659F787E08093A20081E08093682023
:100770002896CDBFDEBFDF91CF911F910F91FF90E3
:10078000EF900895049721F60E949F320E94F02F67
:100790000E94E62CBDCF0E94B7200E94D7170E946E
:1007A000D7170E94D7170E94D7170E94D7170E9409
:1007B000D7170E94B234ACCF80E00E94B8150E94D7
:1007C000B234A6CF81E00E94B8150E94B234A0CF07
:1007D0009FEFE91AF90A89819A81AB81BC818D83E7
:1007E0009E83AF83B887BC01CD010E94912610E0A3
:1007F00000E0B4CF6EDF0E948342A895109268207B
:10080000089580E18093550080915000806180932D
:1008100050008091510084FFFCCF8FB7F894A0E482
:10082000B0E028ED30E094E01BBEFD0124BF9083D2
:100830008FBF8FE39FE10197F1F700C00000809127
:100840004000809150008260809350008091510060
:1008500081FFFCCF8091560084608093560080E831
:10086000809365008BEB8093660082E08093CA01E1
:10087000EDE1F0E0E491E0936200ECE1F0E0E4917E
:10088000E09363001092CA0181E08093600087E0EA
:100890008093A2000C944746B4DF84D339D20E94DF
:1008A0006D230E94E9240E9476130E941E332DD4EA
:1008B0000E942F28ADD4B0D42FEF89EF90E02150C3
:1008C00080409040E1F700C000000E9424270E9471
:1008D00037248930904971F40E94CC24C0E08C2FD9
:1008E0000E9425248C2F0E942C24CF5FC031B9F7A1
:1008F00081DFFECF0E9437248115904F79F76FEF8B
:1009000082E090E00E94AD380E942427E7CF8091DA
:100910003A3990913B390E94B840882389F074D4C9
:1009200086E00E94171281E090E00E942A330E9424
:100930002C1FA89588E090E00E9490400C94A44061
:10094000089508957F928F929F92AF92BF92CF9217
:10095000DF92EF92FF920F931F93CF93DF93CDB768
:10096000DEB7C055D109CDBFDEBFFB01833008F42F
:100970003DC0D0800181D1105AC08630B8F100232B
:10098000A9F19281992391F14481242F30E0845080
:10099000990B4817190654F5802F8150990BBC010B
:1009A000A4E095958795AA95E1F76F707727AE013A
:1009B0004F5F5F4F1FE0DA011D921A95E9F7DA01E8
:1009C0008E01005F1F4F90E8F92EFD920A171B075A
:1009D000E1F71E2FDF0121503109EA2FE11BE21759
:1009E0001306B4F00E94451913D4A895C05BDF4FDD
:1009F000CDBFDEBFDF91CF911F910F91FF90EF90A0
:100A0000DF90CF90BF90AF909F908F907F90089590
:100A10001596EC911597EA50EF3038F4E40FF52F66
:100A2000F11D16960C91169700831296D6CFB1E061
:100A3000DB12DCCFE02FF0E09F0121503109C9012A
:100A400060E170E00E941B4737FF02C0215F3F4F0B
:100A500074E0359527957A95E1F7AE014E5B5F4FCF
:100A6000682F822F0E941C138AE08CA323968FADDF
:100A700023978DA38BE08EA324968FAD24978FA30D
:100A80008CE088A725968FAD259789A78DE08AA74A
:100A900026968FAD26978F5F8BA78EE08CA7279623
:100AA0008FAD27978DA78FE08EA71FA680E188AB1B
:100AB00029968FAD29978F5F89AB81E18AAB2A9602
:100AC0008FAD2A978BAB82E18CAB2B968FAD2B979A
:100AD0008DAB83E18EAB2C968FAD2C978FAB84E1E1
:100AE00088AF2D968FAD2D9789AF85E18AAF2E9671
:100AF0008FAD2E978BAF86E18CAF2F968FAD2F9752
:100B00008DAF87E18EAF60968FAD60978FAF88E134
:100B100021968FAF219761968FAD619722968FAF07
:100B200022978FEF800FE12C803410F46EE1E62ED7
:100B30008E2D68E10E94EE46CC24C394C80EF12CA1
:100B400020EFB22EAA24A39439E7932E44E0842EFA
:100B500017EF5AE0752E8E2DE8E1EE1508F488E1C6
:100B6000F8EEEF0EB9821A82AB829C828D821E82D1
:100B70000F83D886C9868A871B871C871D871E8797
:100B80001F87188B198B1A8B1B8B1C8B1D8B1E8B35
:100B90001F8B188F198F1A8F1B8F1C8F1D8F1E8F05
:100BA0001F8F18A319A31AA31BA3972D9F19482FB2
:100BB00050E0475F5F4F292F2F0D30E0421753075A
:100BC000ACF4BE016F5F7F4F855F0E94302680913D
:100BD0003A3990913B390E94F940A89581E08D0DFA
:100BE00092E0D92EC81608F0B6CF00CF61E070E0D1
:100BF0006C0F7D1F260F371FE4E2F0E0EC0FFD1FA6
:100C0000EF0DF11D6081D9016C93F394D4CF9C0159
:100C1000962FDB014150550B8A2F891B841715062F
:100C20000CF00895EC91EA3048F411968C911197EC
:100C3000E20FF32FF11D80831296EECFEF31E0F338
:100C400011968C911197E20FF32FF11D7597808308
:100C5000F3CFCF93DF93CDB7DEB76F97CDBFDEBFB6
:100C6000F8940E945A33FC01789480EF89831A82A9
:100C700081E08B8399E79C8322E02D838E831F8202
:100C800090914A329F5F9887898784858A872B87CE
:100C900080818C8783E08D8782818E8784E08F8737
:100CA0008481888B85E0898B86818A8B86E08B8B1B
:100CB00080858C8B87E08D8B82858E8B88E08F8BF7
:100CC00080914932888F89E0898F809142328A8F62
:100CD0008FE18B8F8091732B8C8F80E28D8F809131
:100CE00048328E8F87EF8F8FBE016F5F7F4F8FE10E
:100CF0000E9430266F96CDBFDEBFDF91CF91089561
:100D0000FB01882321F08081811101C0A2CF0895C9
:100D1000CF93DF93CDB7DEB72D97CDBFDEBFF8946D
:100D200081E090E00E94553880934A3283E090E061
:100D30000E94553891E0811101C090E09D8784E0C8
:100D400090E00E94553890E089839A8385E090E096
:100D50000E94553890E08B839C8386E090E00E944F
:100D6000553890E08D839E8387E090E00E9455384F
:100D700090E08F83988788E090E00E94553890E05B
:100D800089879A8789E090E00E94553890E08B87A8
:100D90009C878AE090E00E945538809349328BE02E
:100DA00090E00E945538809342328CE090E00E949F
:100DB00055388093732B8DE090E00E9455388093D6
:100DC0004832CE0101960E942F3378942D96CDBFE4
:100DD000DEBFDF91CF910895FF920F931F93CF93C2
:100DE000DF93CDB7DEB72C97CDBFDEBFF82E8B01DA
:100DF0000E949D40CE0101962CE0FC0111922A95A3
:100E0000E9F74F2DB80103DF6981615081E090E07F
:100E10000E94AD386A8183E090E00E94AD386B811A
:100E200084E090E00E94AD386C8185E090E00E9403
:100E3000AD386D8186E090E00E94AD386E8187E02C
:100E400090E00E94AD386F8188E090E00E94AD385C
:100E5000688589E090E00E94AD3869858AE090E07D
:100E60000E94AD386A858BE090E00E94AD386B85BA
:100E70008CE090E00E94AD386C858DE090E00E949F
:100E8000AD3860E07FEF80E090E00E94E80F40DF47
:100E90000E947613DEDE0E942C1F2C96CDBFDEBF93
:100EA000DF91CF911F910F91FF900895F89467E023
:100EB00090E080E00E94AD3863E081E090E00E9425
:100EC000AD3861E083E090E00E94AD3860E084E0FE
:100ED00090E00E94AD3867E085E090E00E94AD3878
:100EE00060E086E090E00E94AD3860E087E090E04E
:100EF0000E94AD3866E088E090E00E94AD3860E086
:100F000089E090E00E94AD386FE38AE090E00E94B3
:100F1000AD386FE78BE090E00E94AD386FE78CE072
:100F200090E00E94AD386FE78DE090E00E94AD3810
:100F300078940C94FB13FB01882399F18081813014
:100F400019F0823081F008950E949D400E940C4665
:100F50002FEF8FE493EC215080409040E1F700C0E8
:100F600000000C94CC240E949D40A0DF87E0809379
:100F7000A2006FEF7FEF80E090E00E94E80F0E94F8
:100F80000C462FEF8FE493EC215080409040E1F726
:100F900000C0000081E090E00E9490400E94A440C8
:100FA000FFCF08956CEE76E081E00E94653560E841
:100FB00076E082E00E9465356BE977E083E00E948D
:100FC000653562EA74E084E00E94653590E080E077
:100FD0000E945538873009F069CF08959C01DA01E5
:100FE000832F99278230910561F18330910549F073
:100FF0000197A1F482E190E023EE34E02D933C933D
:101000000895C90199272230C9F08330910558F419
:10101000009789F0ECE5F4E0019749F090E080E07A
:1010200030E020E0EBCFECE1F4E00397B9F78491F6
:1010300090E09F01E3CFEAE7F4E0F9CFE0E3F4E0EA
:10104000F6CF85E690E02EE734E0D8CF80912008F7
:101050009091210881589F4F80932A0890932B08E4
:1010600080917C2090917D20892B49F080917C207B
:1010700090917D20019780937C2090937D2008950E
:1010800080912008909121080996809328089093D8
:10109000290880E180936506809366069FB7F894DF
:1010A000809110018068809310019FBF80917732FA
:1010B0008F5F80937732809177328F3488F01092EF
:1010C0007732809104018171E1F78EE890E22FB7C9
:1010D000F894809318019093190110921A012FBF70
:1010E0008091082B811110C0809178328F5F80939E
:1010F0007832809178328F3F39F4809179328F5FE6
:10110000809379321092783208951F93CF93DF93B2
:1011100040E05AE06FEF70E08EE890E20E949C4B56
:10112000ECE4F2E386E0DF011D928A95E9F7EBE457
:10113000F2E380E290E08483958384E0808310E191
:1011400012838EE890E28783908780EA99E0818716
:1011500092878CE683830E9428376BE472E380E0F9
:101160000E9407389FB7F894E0E0F1E08081837F28
:10117000816080839FBF63E070E280EA99E00E9413
:101180000940C0E6D6E088E0898382E0898380E078
:1011900098E00E94A43E60E478E080E098E00E943D
:1011A000E33E66E278E080E098E00E94103FE0E0F5
:1011B000F8E089E090E080A791A78FE790E082A710
:1011C00093A787818C7F87838781836087838781CB
:1011D000837F87838781846087838181887F818300
:1011E00078948081807F8660808391E0998380E21B
:1011F000898319839D838E838D831E83109277321A
:10120000DF91CF911F91089581E080936606089544
:1012100081E080936506089540E05AE06FEF70E04A
:101220008EE890E20C949C4B4F925F926F927F926B
:101230008F929F92AF92BF92CF92DF92EF92FF92E6
:101240000F931F93CF93DF9300D000D0CDB7DEB7BD
:101250007C01762E6A015A0131E0A31AB1082223DB
:1012600009F42FC181EC860F823048F581E090E0CF
:10127000D7018D939C93119782E090E013968D9304
:101280009C93149712960C9312978FE7801B1596D8
:101290008C9381E090E02696CDBFDEBFDF91CF91A9
:1012A0001F910F91FF90EF90DF90CF90BF90AF9084
:1012B0009F908F907F906F905F904F900895862FB2
:1012C00090E04230510509F06DC0CF979C01990F15
:1012D000440B550B29833A834B835C83CA01B901C4
:1012E0000E947948B62E072F182F9E8323E333E3FD
:1012F0004BE451E469837A838B839C8369817A818F
:101300008B819C810E94DE4769837A838B839C83D7
:1013100069817A818B819C810E9446486D8323E399
:1013200033E34BE451E4B9820A831B838E818C83BF
:1013300069817A818B819C810E94BB484B018C0121
:1013400020E030E040E251E469839A828B831C8381
:1013500069817A818B819C810E9489499B01AC01C2
:101360005F7729833A834B835C83CA01B9010E946A
:101370004B486E83412CE4E05E2E612C712CAD81D4
:10138000A7FF40C1D301C201880F991FAA1FBB1F2D
:10139000482A592A6A2A7B2AFD81FF5FFD83F111C1
:1013A000F1CF33C13FE32FE3361708F020E4821B6F
:1013B00091099C01990F440B550B29833A834B8368
:1013C0005C83CA01B9010E947948562E672E782E97
:1013D0009D8326E636E64EE751E469837A838B8364
:1013E0009C8369817A818B819C810E94BB484B01DF
:1013F0008C0120E030E040E051E469839A828B83E5
:101400001C8369817A818B819C810E948949DC01DE
:10141000CB01BF7789839A83AB83BC83BC01CD01A9
:101420000E944B486E8326E636E64EE751E4598229
:101430006A827B829D819C8369817A818B819C8178
:101440000E94DE4769837A838B839C8369817A81DA
:101450008B819C810E9446486D8320E030E0A90189
:1014600089829A820B831C8369817A818B819C811A
:101470000E94DA4787FF1CC0AD81A150AD83412C8B
:1014800074E0572E612C712C92E0A916B10408F477
:1014900076CF2D81822F022E000C990B27FDDDC007
:1014A00004C076946794579447942A95D2F7ADC0B8
:1014B000BD81BF5FBD83412C64E0562E612C712C31
:1014C000E3CF262F30E050E040E029833A834B837E
:1014D0005C83CA01B9010E94794832E0C316D10485
:1014E00009F055C020E030E048E351E469837A8395
:1014F0008B839C8369817A818B819C810E94DE47EA
:1015000069837A838B839C8369817A818B819C81B7
:101510000E9446486D83872D90E0B0E0A0E089836B
:101520009A83AB83BC83BC01CD010E94774820E045
:1015300030E048E351E469837A838B839C8369813B
:101540007A818B819C810E94BB484B018C0120E0F9
:1015500030E040E351E469839A828B831C83698184
:101560007A818B819C810E94894969837A838B83EC
:101570009C8369817A818B819C810E944B486E8318
:10158000772079F1412C512C32016394F8CE26E674
:1015900036E64AE351E469837A838B839C836981CD
:1015A0007A818B819C810E94DE4769837A838B8359
:1015B0009C8369817A818B819C810E9446486D83DE
:1015C000812C912C00E010E01E82711004C0412C8F
:1015D000512C320159CF412C40E8542E612C712CF2
:1015E00053CF412C512C3201CACED301C201B69542
:1015F000A79597958795482A592A6A2A7B2ABD81FB
:10160000B150BD83ED81E111F0CF5201D7011396A6
:101610004D925C92149720E030E0A90189829A8271
:101620000B831C8369817A818B819C810E9485490F
:101630001816F4F4B2E0CB16D104C9F57694679489
:10164000579447944A285B28F701408251822E81A3
:1016500022838FE7F70185831CCE919581959109AF
:1016600004C0440C551C661C771C8A95D2F7CDCF5C
:1016700020E030E0A90189829A820B831C83698172
:101680007A818B819C810E94DA4787FF10C032E00B
:10169000C316D10461F4440C551CA428B528D70105
:1016A000AD92BC921197EE811296EC93D2CFD701F6
:1016B0001D921C92119712961C92B3E0CB16D10486
:1016C00009F4E7CDC6CFCF92DF92EF92FF920F934E
:1016D0001F93CF93DF93CDB7DEB72A97CDBFDEBF81
:1016E000F82E842FA90167FD96C0282FCE01019600
:1016F0009BDD892B09F48FC02E2D30E050E040E0B7
:101700002F83388749875A87CA01B9010E947948CF
:1017100020E030E04EEF52E46F83788789879A8724
:101720006F81788589859A850E94DE476B01E82E56
:10173000092F8B81282F30E050E040E02F8338873D
:1017400049875A87CA01B9010E94794896014E2DEE
:10175000502F6F83788789879A876F8178858985ED
:101760009A850E9489496F83788789879A876F81D4
:10177000788589859A850E944B48162F8E81282F5F
:1017800030E050E040E02F83388749875A87CA010C
:10179000B9010E94794896014E2D502F6F837887AA
:1017A00089879A876F81788589859A850E9489497A
:1017B0006F83788789879A876F81788589859A85ED
:1017C0000E944B4829814A81237E3C815D81337E82
:1017D000EFE0F0E0EF19F109EE0FFF1FE257FF4DC8
:1017E00090E07FEF20954095309550958081836EF5
:1017F00080837183911718F4822380834183961725
:1018000030F4808183238083818185238183B09616
:101810009F5F903559F72A96CDBFDEBFDF91CF91FC
:101820001F910F91FF90EF90DF90CF900895EF926E
:101830000F93E0914832F0E0E45EFD4FE49043DF27
:101840000F91EF9008954F925F926F927F928F92D7
:101850009F92AF92BF92CF92DF92EF92FF926A0176
:101860007B01270166247724442D8D2C9E2CAF2CE0
:10187000BB24582D3C2D2223A1F02150330B429E36
:10188000A001439E500D1124452F829EB001839EDE
:10189000700D1124572FC29EB001C39E700D1124EC
:1018A000372FEFE0F0E0E81BF109EE0FFF1FE257E2
:1018B000FF4D90E080819317E8F08C61808394174E
:1018C00018F48081877F8083951718F480818F7E3C
:1018D0008083B0969E5F903A69F7FF90EF90DF901B
:1018E000CF90BF90AF909F908F907F906F905F90C0
:1018F0004F9008958B7F88618083E1CFEFE0F0E027
:10190000E81BF109EE0FFF1FE257FF4D90E02FEFAC
:10191000607E609570958081836E808321839417AB
:1019200018F4862380837183B0969F5F903599F772
:101930000895E0914832F0E0E45EFD4F4491DECF3F
:10194000242FE82FF0E0E258FF4D608393E0699F79
:10195000F0011124E456FD4F459155916591749124
:1019600072CFE091732BF0E0E45EFD4F4491E8CF3D
:101970002091793230E048E050E0481B5109C9011C
:1019800002C0959587954A95E2F781700895CF93A7
:10199000DF9300D00F92CDB7DEB728E030E0281BF0
:1019A00031098091082B811153C08091793240E236
:1019B000849FC001112402C0959587952A95E2F76E
:1019C00080936A2080916A20282F30E050E040E028
:1019D00029833A834B835C83CA01B9010E94794809
:1019E00027E53FEC49E45DE369837A838B839C833D
:1019F00069817A818B819C810E94894969837A837C
:101A00008B839C8369817A818B819C810E94384A77
:101A100020E030E04CEF52E469837A838B839C832F
:101A200069817A818B819C810E94894969837A834B
:101A30008B839C8369817A818B819C810E944B4836
:101A400080E8860F2496CDBFDEBFDF91CF91089549
:101A50008091793250E2859FC001112402C0959592
:101A600087952A95E2F780936A20ACCF6F927F9298
:101A70008F929F92AF92BF92CF92DF92EF92FF929E
:101A80000F931F93CF93DF9300D000D0CDB7DEB775
:101A90008D83F62E842F442309F499C09FEF940F71
:101AA0009830C8F465DF20E040E050E0BA018823B8
:101AB00049F12D81E22FF0E0E258FF4DE08133E063
:101AC000E39FF0011124E456FD4F45915591659136
:101AD000749120E017C097EF940F9830A8F48850C5
:101AE00056DF282F4D81E42FF0E0E258FF4DE081D2
:101AF00053E0E59FF0011124E456FD4F45915591C7
:101B0000659174918D811DC09FEE940F903258F5B0
:101B10009D81E92FF0E0E258FF4DE081A3E0EA9FCC
:101B2000F0011124E456FD4F459155916591749152
:101B3000282F2151330BF901E450FE4F2491220F3D
:101B4000892F2696CDBFDEBFDF91CF911F910F91D8
:101B5000FF90EF90DF90CF90BF90AF909F908F90CD
:101B60007F906F9070CE9FEC940F983008F05EC01D
:101B7000262F2295207F3D81320F39838053F8DE56
:101B80004981242F30E05D81052F10E090E1F99E1E
:101B9000F001112481112DC08FE0829FD001839F1D
:101BA000B00D1124A65CBB4C1C962C911C9730E008
:101BB00041E08C91811101C040E0E654FD4CE00F02
:101BC000F11FE12C1B960C9160818D817CDD2696A6
:101BD000CDBFDEBFDF91CF911F910F91FF90EF90AE
:101BE000DF90CF90BF90AF909F908F907F906F903D
:101BF00008958FE0829FD001839FB00D1124A65CD1
:101C0000BB4C1C962C911C9730E041E08C918111CB
:101C100001C040E0E654FD4CE00FF11FEE24EA94D1
:101C20001B960C9160818D814EDDD1CF97EC940F86
:101C3000983038F5A62FA295A07FBD81BA0FB98341
:101C40008753A5DEE82E39812FE0329FD001112481
:101C5000A65CBB4C1C962C911C9730E041E08C910B
:101C6000811101C040E050E1F59EF0011124E654DD
:101C7000FD4C8D81E80FF11D1B960C91608123DDD9
:101C8000A6CF9FEB940F903290F4A42FA154BB0BDE
:101C9000FD01E450FE4FE490A62FA295A07FBD81E8
:101CA000AB0FEE0C2FE0A29FD0011124D1CF4F3704
:101CB00009F08DCF909179329E83292F30E050E04A
:101CC00040E029833A834B835C83CA01B9010E94B7
:101CD000794829E334EB48E45DE369837A838B83B5
:101CE0009C8369817A818B819C810E948949698367
:101CF0007A838B839C8369817A818B819C810E940A
:101D0000384A962EA72EB82EC92E8E818B5A282F90
:101D100030E050E040E029833A834B835C83CA0182
:101D2000B9010E94794829E334EB48E45DE3698313
:101D30007A838B839C8369817A818B819C810E94C9
:101D4000894969837A838B839C8369817A818B81BA
:101D50009C810E94384A662ED72E7C013E813655E2
:101D6000832F90E0B0E0A0E089839A83AB83BC83AB
:101D7000BC01CD010E94794829E334EB48E45DE3DE
:101D800069837A838B839C8369817A818B819C812F
:101D90000E94894969837A838B839C8369817A81D4
:101DA0008B819C810E94384A762E072F182F9E83A4
:101DB00020E030E04CEF52E49982AA82BB82CC82D0
:101DC00069817A818B819C810E94894969837A83A8
:101DD0008B839C8369817A818B819C810E944B4893
:101DE000862E912CA0E88A0E911C092C000CAA08C2
:101DF000BB0854019924882420E030E04CEF52E4E1
:101E00006982DA82EB82FC8269817A818B819C8192
:101E10000E94894969837A838B839C8369817A8153
:101E20008B819C810E944B48C62ED12CB0E8CB0EF2
:101E3000D11C0D2C000CEE08FF08FE2CED2CDC2C28
:101E4000CC24C80CD91CEA1CFB1C20E030E04CEF71
:101E500052E479820A831B838E818C8369817A8123
:101E60008B819C810E94894969837A838B839C83BF
:101E700069817A818B819C810E944B48462F50E07A
:101E800040585F4F052E000C660B770BC40ED51E15
:101E9000E61EF71E2E2D30E050E040E029833A8305
:101EA0004B835C83CA01B9010E94774820E030E08F
:101EB0004FE753E469837A838B839C8369817A81BA
:101EC0008B819C810E94DE4720E030E040EA50E4B4
:101ED00069837A838B839C8369817A818B819C81DE
:101EE0000E94EC494B015C018D2D90E0B0E0A0E038
:101EF00089839A83AB83BC83BC01CD010E94774860
:101F000020E030E04FE753E469837A838B839C833E
:101F100069817A818B819C810E94DE4720E030E0DC
:101F200040E250E469837A838B839C8369817A8160
:101F30008B819C810E94EC49762E072F182F9E835F
:101F4000DD24EE24FF2420E030E04FE753E48982D3
:101F50009A82AB82BC8269817A818B819C810E944A
:101F6000894969837A838B839C8369817A818B8198
:101F70009C810E944B485B019924882420E030E03A
:101F80004FE753E479820A831B839E819C83698196
:101F90007A818B819C810E94894969837A838B83B2
:101FA0009C8369817A818B819C810E944B486983E3
:101FB0007A838B839C834427562F672F782F482959
:101FC00059296A297B294C295D296E297F2981CDD0
:101FD0007F928F929F92AF92BF92CF92DF92EF92B9
:101FE000FF920F931F93CF93DF9300D000D0CDB714
:101FF000DEB78B018E839D830FD98091A200816013
:102000008093A20081E08093660677247A94809082
:102010006920CC24C39487FC41C0882D082C000C77
:10202000990BAA0BBB0B89839A83AB83BC83BC013E
:10203000CD010E9479482AE135EA4AEC5CE36983E4
:102040007A838B839C8369817A818B819C810E94B6
:10205000894969837A838B839C8369817A818B81A7
:102060009C810E94384A20E030E04FE753E46983C6
:102070007A838B839C8369817A818B819C810E9486
:10208000894969837A838B839C8369817A818B8177
:102090009C810E944B48CC24C394C60E9090022091
:1020A000DD24D39497FC41C0892D092C000C990B99
:1020B000AA0BBB0B89839A83AB83BC83BC01CD0184
:1020C0000E9479482AE135EA4AEC5CE369837A8325
:1020D0008B839C8369817A818B819C810E94894951
:1020E00069837A838B839C8369817A818B819C81CC
:1020F0000E94384A20E030E04FE753E469837A8356
:102100008B839C8369817A818B819C810E94894920
:1021100069837A838B839C8369817A818B819C819B
:102120000E944B48DD24D394D60EA0900120EE24CB
:10213000E394A7FC41C08A2D0A2C000C990BAA0B32
:10214000BB0B89839A83AB83BC83BC01CD010E9406
:1021500079482AE135EA4AEC5CE369837A838B8328
:102160009C8369817A818B819C810E9489496983E2
:102170007A838B839C8369817A818B819C810E9485
:10218000384A20E030E04FE753E469837A838B8359
:102190009C8369817A818B819C810E9489496983B2
:1021A0007A838B839C8369817A818B819C810E9455
:1021B0004B48EE24E394E60EB0900020FF24F39405
:1021C000B7FC41C08B2D0B2C000C990BAA0BBB0B41
:1021D00089839A83AB83BC83BC01CD010E9479487B
:1021E0002AE135EA4AEC5CE369837A838B839C833A
:1021F00069817A818B819C810E94894969837A8374
:102200008B839C8369817A818B819C810E94384A6F
:1022100020E030E04FE753E469837A838B839C832B
:1022200069817A818B819C810E94894969837A8343
:102230008B839C8369817A818B819C810E944B482E
:10224000FF24F394F60E2C2DA8016E817D8180E091
:10225000FADA2C2DA8016E817D8181E0F4DA2C2D33
:10226000A8016E817D8182E0EEDA2C2DA8016E81BD
:102270007D8183E0E8DA2D2DA8016E817D8184E0E7
:10228000E2DA2D2DA8016E817D8185E0DCDA2D2D2D
:10229000A8016E817D8186E0D6DA2D2DA8016E81A0
:1022A0007D8187E0D0DA2E2DA8016E817D8188E0C6
:1022B000CADA2E2DA8016E817D8189E0C4DA2E2D27
:1022C000A8016E817D818AE0BEDA2E2DA8016E8183
:1022D0007D818BE0B8DA2F2DA8016E817D818CE0A5
:1022E000B2DA2F2DA8016E817D818DE0ACDA2F2D21
:1022F000A8016E817D818EE0A6DA2F2DA8016E8166
:102300007D818FE0A0DA83948092692093949092EB
:102310000220A394A0920120B394B0920020AFE3D6
:10232000BFE11197F1F700C000007A9471106FCEF1
:102330002696CDBFDEBFDF91CF911F910F91FF9009
:10234000EF90DF90CF90BF90AF909F908F907F9055
:1023500008958091092090910A209C01322F222714
:102360003295330F307E28273927C901892F9927C5
:10237000869528273927C9019695982F88279795FC
:102380008795822793278093092090930A200895A8
:10239000EF92FF920F931F93CF93DF930BE610E220
:1023A0008BE7E82E80E2F82ED0E0F801C1918F0192
:1023B000CC2359F0CEDF8F739927D1E0892B29F4F4
:1023C000F8013197C150C083D1E0E016F10669F7FA
:1023D000C0917B20CC2319F180917C2090917D20AD
:1023E000892BE9F4B6DF8F70E82FF0E0E559FF4D57
:1023F0008081811114C01FEF1083ABDFFC01EF70EF
:10240000FF27E559FF4D1083A4DF8F77992740966A
:1024100080937C2090937D20C150C0937B208D2F92
:10242000DF91CF911F910F91FF90EF9008956F92E0
:102430007F928F929F92AF92BF92CF92DF92EF9254
:10244000FF920F931F93CF93DF93CDB7DEB76497BF
:10245000CDBFDEBF80937B208BE790E2DE0111963B
:10246000EBE6F0E211921D928E179F07D9F771DF0C
:10247000FC01EF70FF27E559FF4D8FEF808369DF87
:102480008F779927409680937C2090937D20E3ED71
:102490007E2EFCE26F2E7CDF811112C06496CDBFD0
:1024A000DEBFDF91CF911F910F91FF90EF90DF90F2
:1024B000CF90BF90AF909F908F907F906F90089536
:1024C0008E010F5F1F4F7BE6A72E70E2B72E912C77
:1024D000D5018D905D01F80181918F01881609F475
:1024E0006DC0C82CCC0C8C2D90E087FE6CC09C017C
:1024F0003695322F222737952795821B930B880F0D
:10250000991F8EEF890F282F30E050E040E0298B93
:102510003A8B4B8B5C8BC69CC001112443ED490F59
:10252000C42ED12CF12CE12C69897A898B899C8964
:102530000E94774820E030E04FE753E4698B7A8BC4
:102540008B8B9C8B69897A898B899C890E94DE4759
:1025500020E030E040EA50E4698B7A8B8B8B9C8BD7
:1025600069897A898B899C890E94EC4920E030E056
:102570004FE753E4698B7A8B8B8B9C8B69897A89C3
:102580008B899C890E948949698B7A8B8B8B9C8B68
:1025900069897A898B899C890E944B48698B7A8BDF
:1025A0008B8B9C8B552744274C295D296E297F29CD
:1025B0002EEF892D48D9F80131978082939430E12C
:1025C000931286CF68CF3EEFC39EC0011124892F9E
:1025D000990F990B9C01990F440B550B298B3A8B42
:1025E0004B8B5C8BC79C60011124CD2CDD0CDD086E
:1025F0000D2C000CEE08FF0897CFEFE0E89FD0010C
:102600001124A65CBB4CE69FF0011124E65CFB4C58
:1026100017969C911797878198130CC018968C91E8
:102620009085891307C0823029F09CEF980F81E0D4
:10263000923008F480E008950F931F93CF93DF93B7
:10264000CDB7DEB72897CDBFDEBF8A01F89440E84A
:10265000849F90011124205E3F4FE8E06E9FC001EF
:10266000112448E050E0BE016F5F7F4F820F931F3F
:102670000E94663878948981982F9F70F801928320
:10268000158282958F7083838A818F7784838B8173
:1026900081878C8182878D81982F9F779387881F70
:1026A0008827881F80838E81982F93709487982F16
:1026B000969596959370918382958F7086878F817A
:1026C000982F9770908782958F7086838885982F32
:1026D0009F779783881F8827881F85872896CDBF77
:1026E000DEBFDF91CF911F910F910895AF92BF92FE
:1026F000CF92DF92EF92FF920F931F93CF93DF93CE
:10270000CAE3D4E37E0110E0612F6F70A701812F2F
:1027100082958F7091DF1F5F2FE0E20EF11C103465
:1027200099F79EEFE92E97E3F92E23EAC22ED12CDA
:102730008601005811095701C8010E945538F5015A
:1027400081935F01085F1F4F0C151D05A9F7C80194
:1027500080589F4F6C0190E1E90EF11C033212404A
:1027600039F71092DA381092DB381092DC38109278
:10277000DD381092DE381092DF381092E038109277
:10278000E138E091F22AF0E0AEE3B8E31D9228E3ED
:10279000AE34B207D9F7EE0FFF1FE652F74C1082A6
:1027A0001182EAEFF2E38EEC98E12881DF01A05874
:1027B000BF4F2223D9F0808391838D939C932F96D2
:1027C000329623E3EA37F20781F788E08093F12A13
:1027D00082E08093F02ADF91CF911F910F91FF90BB
:1027E000EF90DF90CF90BF90AF900895108211824C
:1027F0001D921C92E4CFDF92EF92FF920F931F93F2
:10280000CF93DF93CDB7DEB7A897CDBFDEBF809162
:10281000312090913220A0913320B09134208DA3AB
:102820009EA3AFA3B8A78091362090913720A091A6
:102830003820B091392089A39AA3ABA3BCA38E0101
:102840000F5F1F4F80E2F80111928A95E9F7F801B6
:1028500080E050E19FE74FE332E421E05083818341
:102860009283938344833583268387838F5F38964F
:102870008430A1F7D12C7801F0E2EF0EF11C8D2D00
:10288000D3948695869590E0E5E2F0E0EC0FFD1F8D
:10289000E80FF91F208141E250E04C0F5D1F840FCB
:1028A000951FFC0180812B838C832B878C872B8B3E
:1028B0008C8B2B8F8C8FF894C8010E94D0388D2D73
:1028C0000E94E2387894F80181818C5F818387814E
:1028D0008C5F87833896EE16FF06B1F7F0E1DF12C2
:1028E000CECFA896CDBFDEBFDF91CF911F910F91C4
:1028F000FF90EF90DF900895EF92FF920F931F9358
:10290000CF93DF93CDB7DEB72797CDBFDEBF6D8303
:102910007E83282F30E050E040E029833A834B83C8
:102920005C83CA01B9010E947748209152203091FE
:102930005320409154205091552069837A838B8392
:102940009C8369817A818B819C810E9489497B016A
:102950008C01AD81BE81CD01B0E0A0E089839A8376
:10296000AB83BC83BC01CD010E9477489B01AC01C5
:10297000E982FA820B831C8369817A818B819C8135
:102980000E94DE4720914E2030914F2040915020F0
:102990005091512069837A838B839C8369817A81EA
:1029A0008B819C810E9476478B018F839D8320E0E1
:1029B00030E040E853E469831A838B839C83698108
:1029C0007A818B819C810E94854918164CF120E008
:1029D00030E040E85FE369817A818B819C810E94CD
:1029E000DA4787FF06C000E010E090E89F83AFE37E
:1029F000AD8309831A833F813B834D814C83698179
:102A00007A818B819C810E944B48CB012796CDBF58
:102A1000DEBFDF91CF911F910F91FF90EF9008954E
:102A200000E010E0B0E8BF8323E42D83E2CF9FE015
:102A3000499FF0011124E65CFB4C90819923E1F160
:102A4000E62FF0E0EE0FFF1FE650FD4C4081518174
:102A500043595841413D510578F590E0DC01A25CB5
:102A6000B74C3C91230F2C934091F12A421734F438
:102A700084E699E18083918381E00895022E000C21
:102A8000330B552741950CF450952417350734F432
:102A900082E998E18083918381E00895E091F22AB0
:102AA00020E1E29FF0011124E654FD4CE80FF91FEC
:102AB00080E4808381E0089580E008959FE0499F4D
:102AC000F0011124E65CFB4C9085923009F44CC077
:102AD0009450923008F448C070E0660F771FFB01F5
:102AE000E650FD4C40815181FA013197EB39F143B9
:102AF000D8F1E82FF0E044365105B4F41216B4F0E2
:102B0000E25CF74C20818091F02A8217B4F44436BD
:102B100051059CF466507D4C84E690E0DB018D937A
:102B20009C93108281E0089527FFEACFDF01A25C29
:102B3000B74C8C91280F2C93E3CF022E000C330B53
:102B4000992781950CF49095281739077CF449331F
:102B5000514364F066507D4C88E391E3DB018D9333
:102B60009C93108281E0089580E0089581E00895AB
:102B7000AF92BF92CF92DF92EF92FF920F931F938B
:102B8000CF93DF93C82F0E9437248C2F8295807FAC
:102B90003CE2F32EF80E4CE3E42EE80ECC24C39472
:102BA000D12CD0E08E01000F111FC8018650984C27
:102BB0005C010253174C0E9467248C219D21892BB4
:102BC00009F44CC02FE741E06F2D80914A320E94FA
:102BD000E925F501808191818C219D21892B39F492
:102BE000F801808191818C299D2980839183CC0C6F
:102BF000DD1CF394EF10DFCF80918F2ACC0FDD1F07
:102C0000C253D74C21E030E0082E02C0220F331F00
:102C10000A94E2F7488159812423352360E0232B6D
:102C2000E9F10E94B10C00E021E030E040E06FE704
:102C300080918F2A0E94170C80918F2A8F5F80319C
:102C4000C8F580938F2ADF91CF911F910F91FF904C
:102C5000EF90DF90CF90BF90AF9008950E946C24CA
:102C60008C219D21892B19F220E040E06F2D80916D
:102C70004A320E94E925F501808191818C219D21B4
:102C8000892B09F0B4CFF8018081918196012095BC
:102C900030958223932380839183A9CF0E94B10C26
:102CA00000E021E030E040E060E080918F2A0E9467
:102CB000170CC2CF10928F2AC6CFAF92BF92CF927D
:102CC000DF92EF92FF920F931F93CF93DF9300D089
:102CD00000D0CDB7DEB76D83E82EF12C8FE08E9D4E
:102CE000F0018F9DF00D1124E65CFB4C222309F4CA
:102CF0009FC026852E838FE08E9D80018F9D100DB5
:102D00001124065C1B4CD80118968C911897982FAB
:102D10009D7F913009F092C04D8117966C918E8104
:102D20000E940F26F8018585882309F49DC08091B3
:102D3000423200914932FD81F01708F47CC010E066
:102D400090E0801B910B9C01990F440B550B29833C
:102D50003A834B835C83CA01B9010E94794820E021
:102D600030E04EEF52E469837A838B839C836981E0
:102D70007A818B819C810E94DE479B01AC0160E0DF
:102D800070E080E89FE30E94DE475B016C013D81BB
:102D9000632F70E0601B710BCB01770FAA0BBB0B8D
:102DA00089839A83AB83BC83BC01CD010E9479489F
:102DB0009B01AC01A982BA82CB82DC8269817A81D3
:102DC0008B819C810E94894969837A838B839C8350
:102DD00069817A818B819C810E944B48CB01162F9F
:102DE000998380913A3990913B390E94F940412F63
:102DF00059814038510510F04FE750E08FE08E9D2B
:102E0000F0018F9DF00D1124E65CFB4C6781605C46
:102E10008E812696CDBFDEBFDF91CF911F910F919E
:102E2000FF90EF90DF90CF90BF90AF900C940F2663
:102E300036813E8360CF10E01982D3CF811114C058
:102E40002D8141E017966C918E812696CDBFDEBF15
:102E5000DF91CF911F910F91FF90EF90DF90CF9076
:102E6000BF90AF900C94E9252696CDBFDEBFDF91D1
:102E7000CF911F910F91FF90EF90DF90CF90BF9077
:102E8000AF900895E82F862F4423C1F02E2F30E015
:102E90009FE0E99FF0011124E65CFB4C90859330A4
:102EA00069F4220F331FF901E650FD4C80819181B6
:102EB000C29664E670E00E941B47862F0895CF9368
:102EC000DF93282F22952F7030E0D901AA0FBB1F66
:102ED000AE51B74CCD91DC911197982F9F70E92F8F
:102EE000F0E041E050E002C0440F551F9A95E2F730
:102EF00074E0220F331F7A95E1F7611116C04095F7
:102F000050954C235D234D935C932250384CE20F37
:102F1000F31F9FE0899FD0011124A65CBB4C1A9639
:102F20008C918083DF91CF9108954C2B5D2B9FEF87
:102F3000960F4D935C932250384CE20FF31F9D3750
:102F400010F46083EFCF9FE0899FD0011124A65C2D
:102F5000BB4C19968C918083E5CFE82F82958F70BA
:102F6000EF7030E020E0662311F02FE730E040E121
:102F7000849FC0011124E80FF92FF11DEE0FFF1FF0
:102F8000E25BF74C208331830895982F882329F042
:102F900081E0913320F09F3711F080E0089508958B
:102FA0009FEC980F81E0903308F080E00895CF9275
:102FB000DF92EF92FF920F931F93CF93DF93E091F5
:102FC000F22A80918E2A282F30E090E1E99FD001EB
:102FD0001124A654BD4CA20FB31FDC91E295E07FF3
:102FE000CE2FC80F2052354DF90190819D17B9F0B1
:102FF0009FE0C99FF0011124E65CFB4C248530E082
:1030000041E09081911101C040E003856D2F0E9445
:10301000170CE0918E2AF0E0E052F54DD0838091BC
:103020008E2A282F30E0E091F22A90E1E99FF0010A
:103030001124E250F84CE20FF31FD0812053354D9C
:10304000F90190819D1749F06D2F0E94B10CE0911C
:103050008E2AF0E0E053F54DD083C090F22AD09054
:103060008E2AED2CF12CF0E1CF9E80011124F80185
:10307000E650FC4CEE0DFF1DD081DD2309F44FC05E
:103080008D2F8EDF882309F44AC0D801A250B84C96
:10309000AE0DBF1D2C914D2F6C2D8D2D0E94360D28
:1030A000E0918E2AF0E0E054F54DD083D090F22AE2
:1030B00000918E2AE02EF12C90E1D99EE00111249E
:1030C000FE01E658FD4CEE0DFF1D1081112309F4A1
:1030D0004BC0812F5ADF882309F446C0C250D84C18
:1030E000CE0DDF1D2881412F6D2D802F0E94360DC2
:1030F000E0918E2AF0E0E055F54D108380918E2A04
:103100008F5F803108F045C080938E2ADF91CF9188
:103110001F910F91FF90EF90DF90CF900895F701EE
:10312000E054F54D8081882309F4C0CF8FE0C89F1B
:10313000F0011124E65CFB4C248530E041E0808105
:10314000811101C040E0D801A654BD4CAE0DBF1D99
:1031500003856C918D2D0E94170CE0918E2AF0E072
:10316000E054F54D1082A2CFF701E055F54D808176
:10317000882321F2C250D84CCE0DDF1D6881802FEC
:103180000E94B10CE0918E2AF0E0E055F54D1082DE
:10319000B5CF10928E2ABACF8091F22A0895C296A6
:1031A00064E670E00E941B47862F08959C012D392C
:1031B00081E3380714F02CE931E3C90137FF02C07D
:1031C00090E080E008959C012359384181E0213D41
:1031D000310508F080E008959C012150310981E01B
:1031E0002B39314308F480E00895EF92FF920F935A
:1031F0001F93CF93C82F01E010E0062E02C0000FEE
:10320000111F0A94E2F7E82FE295E07FE60FEE2E19
:10321000F12C8FE0E89FF0011124E65CFB4C8281E9
:10322000863069F08FE08E9DF0018F9DF00D1124A6
:10323000E65CFB4C8281873051F080E015C00E9433
:10324000622480239123892B69F381E00DC0EC2F48
:10325000F0E0EE0FFF1FE652F74C808191810823CA
:10326000192381E0012B49F3CF911F910F91FF901A
:10327000EF900895CF93C82FC295C07FC60FB5DFDA
:103280008111C05C8C2FCF910895DF92EF92FF9255
:103290000F931F93CF93DF93CDB7DEB7A097CDBF2A
:1032A000DEBF182F062F7A01E5DF9FE0989FD0013F
:1032B0001124A65CBB4CF70101900D929A95E1F7A1
:1032C000D02ED694D69420E8129FC0011124809667
:1032D00040E2D49E9001112440E250E0BE016F5FB5
:1032E0007F4F820F931F0E946638037088E0089F0B
:1032F000F0011124A1E0B0E0AC0FBD1FEA0FFB1FED
:10330000D70112969C9197FD05C08081807F9F70A8
:10331000892B8083D70113968C9187FD0BC0208168
:103320002F708150990B34E0880F991F3A95E1F77F
:10333000822B8083D70114968C9187FF8183D701DC
:1033400019968C9187FF8283D7011A968C9187FFFB
:103350008383D7019C9197FD04C0848190FB87F9FA
:103360008483D7011B969C9197FD04C0848180784B
:10337000892B8483D7011C969C9197FD05C085817C
:103380008C7F9370892B8583D70111969C9197FD33
:1033900009C02581237FB4E09B9FC00111248C705C
:1033A000822B8583D7011E962C9127FD08C085812D
:1033B0008F70B0E12B9F90011124822B8583D70160
:1033C00018969C9197FD05C08681887F9770892B00
:1033D0008683D70116962C9127FD0BC086818F70AE
:1033E0002150330B94E0220F331F9A95E1F7282BDD
:1033F0002683D70117969C9197FD04C0878180781A
:10340000892B8783D7011D969C9197FD04C08781E6
:1034100090FB87F98783110F110FD3941D0DF8943A
:10342000CE0101960E94D038812F0E94E238789414
:10343000A096CDBFDEBFDF91CF911F910F91FF907E
:10344000EF90DF9008952F923F924F925F926F928C
:103450007F928F929F92AF92BF92CF92DF92EF9224
:10346000FF920F931F93CF93DF93CDB7DEB72D97C6
:10347000CDBFDEBF582E682E629430EF6322660EF9
:103480004AEBA42E42E3B42E5AEF852E52E3952E3A
:103490002AE334E32C873D87712C262C312C3FE026
:1034A000639EC0011124FC01E65CFB4CE983FA83B6
:1034B0003696E887F9879101205C3F4F2A873B8742
:1034C00030E1539EC001112486549D4CFC01E60F4F
:1034D000F11DEB83FC83A895571409F457C02AE328
:1034E00034E38C85281B2D838401EC84FD846501E5
:1034F000412C8A859B85880F991FFC01E650FD4C65
:10350000EE83FF836D81640D862D77D8882391F13A
:10351000642D872D6ADEE885F9852081F701968183
:10352000291311C0F101EE0FFF1FE650FD4C208161
:103530003181F80120833183811105C0EB81FC8149
:103540009081F6019083E981FA812685F7019685BD
:10355000291310C0EE81FF8120813181F801E058EC
:10356000FF4F20833183882329F0EB81FC81808108
:10357000F60180834394FFEFCF1ADF0A2FE0E20EBB
:10358000F11C0E5F1F4F30E14312BCCF739480E1FA
:10359000A80EB11CEC85FD85E051FF4FEC87FD873F
:1035A000F0E28F0E911C24E0721295CF2D96CDBFC4
:1035B000DEBFDF91CF911F910F91FF90EF90DF90D1
:1035C000CF90BF90AF909F908F907F906F905F90C3
:1035D0004F903F902F900895CF93DF93D82FC0E066
:1035E0006C2F8D2F30DFCF5FC031D1F7DF91CF91BE
:1035F00008957F928F929F92AF92BF92CF92DF9267
:10360000EF92FF920F931F93CF93DF93982E8091A9
:10361000F22AE2DF20EEA22E2AE2B22E30EDC32EF5
:103620003AE2D32E80E1989E8001112406541D4C6D
:10363000D0E0C0E044E6E42EF12C88248A946C2F7C
:103640008091F22A17DE782E6C2F892D13DE282F19
:10365000E091F22A80E1E89FF0011124E654FD4C4C
:10366000EC0FFD1FA72DB0E0AA0FBB1FA650BD4C4D
:103670008D919C91B7010E941B476083F501819257
:103680005F01F60181926F01E22FF0E0EE0FFF1F64
:10369000E650FD4C80819181B7010E941B47F801E3
:1036A00061938F012196C031D10549F69092F22A9B
:1036B000DF91CF911F910F91FF90EF90DF90CF900E
:1036C000BF90AF909F908F907F900895BF92CF92C0
:1036D000DF92EF92FF920F931F93CF93DF9300D06F
:1036E00000D0CDB7DEB76C01B62E142F2D832FE39B
:1036F000261728F0009781F0019709F4D9C0269683
:10370000CDBFDEBFDF91CF911F910F91FF90EF9062
:10371000DF90CF90BF900895E62EF12C8FE0689F48
:10372000A0011124465C5B4C49835A83DA01189648
:103730008C911897982F9D7F913009F08FC0412F61
:1037400017966C91179716968C910E940F26E98117
:10375000FA818585882399F280914232F09149322D
:10376000F9831F1708F455C02F2F30E02D833E83B7
:1037700090E0821B930B9C01990F440B550B2983FE
:103780003A834B835C83CA01B9010E94794820E0E7
:1037900030E04EEF52E469837A838B839C836981A6
:1037A0007A818B819C810E94DE479B01AC0160E0A5
:1037B00070E080E89FE30E94DE47B62E072F6C0181
:1037C000412F50E08D819E81481B590BCA01550F36
:1037D000AA0BBB0B89839A83AB83BC83BC01CD014D
:1037E0000E9479489B01AC01B9820A83CB82DC82BA
:1037F00069817A818B819C810E94894969837A835E
:103800008B839C8369817A818B819C810E944B4848
:103810006B0180913A3990913B390E94F940A601A1
:103820004038510510F04FE750E08FE08E9DF001D9
:103830008F9DF00D1124E65CFB4C6781605C8681F6
:103840002696CDBFDEBFDF91CF911F910F91FF90E4
:10385000EF90DF90CF90BF900C940F26811117C08E
:10386000212F41E0A981BA8117966C91179716967E
:103870008C912696CDBFDEBFDF91CF911F910F9126
:10388000FF90EF90DF90CF90BF900C94E9258230AD
:1038900021F08450823008F032CF8FE08E9DF0010D
:1038A0008F9DF00D1124E65CFB4C412F6781C7CF43
:1038B000C62ED12CBFE06B9FC0011124FC01E65C39
:1038C000FB4C7F018281823038F09AEF980F923062
:1038D00018F0843009F062C04D81612F8B2DD2DA4F
:1038E000482F2FE02C9DC0012D9D900D11249C018F
:1038F000265C3B4C7901D90113960C9113971496D1
:10390000DC906D2D802F0E940F26112309F4F7CE35
:1039100080914A320813F3CEB3E0BD1508F4EFCE20
:103920008091F22A482F50E06B2D6F70E62FF0E067
:1039300020E1829FC00111249C012E0F3F1F220F06
:10394000331F225B374CD9011D921C9221E030E0DD
:1039500002C0220F331F6A95E2F7DA01AA0FBB1FDC
:10396000AE51B74C4D915C9124233523232B41F468
:103970008250984CE80FF91FD7011A968C918083DA
:103980008D2D2696CDBFDEBFDF91CF911F910F9178
:10399000FF90EF90DF90CF90BF902BCE825082307F
:1039A00008F0ADCE4D81612F8B2D6CDA282F4D8123
:1039B000F701648183815DCFDF92EF92FF920F93D5
:1039C0001F93CF93DF93D82FC62FD42E79017FD7A3
:1039D0008E219F21892B91F00D2D10E04FE0D49E78
:1039E000F0011124E65CFB4CE281E83060F4F0E089
:1039F0008827EB55F44B8F4F0C946C476DD78E2175
:103A00009F21892B49F7DF91CF911F910F91FF9053
:103A1000EF90DF9008955BD78E219F21892B99F33A
:103A2000E091F22A6E2F70E02D2F30E080E1E89FC8
:103A3000F0011124CF01820F931F880F991F825B21
:103A4000974CDC018D919C914FE750E0892B11F050
:103A500050E040E0CF01820F931F880F991F825BD7
:103A6000974CDC014D935C9381E090E002C0880F9D
:103A7000991FDA95E2F7DB01AA0FBB1FAE51B74CD5
:103A80006D917C9186239723892B91F48FE0809F01
:103A9000D001819FB00D1124A65CBB4C411551058E
:103AA000B9F019968C91E250F84CE20FF31F808325
:103AB00021E04115510509F420E06D2D81E090E0F1
:103AC000DF91CF911F910F91FF90EF90DF90FECD8E
:103AD0001A968C91E8CFFBD62D2F30E0E822F92200
:103AE0009091F22AEF2809F443C0B0E19B9FF001C6
:103AF0001124E20FF31FEE0FFF1FE25BF74C4FE7BD
:103B000050E040835183E92FF0E040E1949FC001F1
:103B10001124DC01A20FB31FAA0FBB1FA25BB74C7D
:103B20004D915C9161E070E002C0660F771FDA95FD
:103B3000E2F7EE0FFF1FEE51F74C0190F081E02D00
:103B40006E237F23672B09F0B3CF6FE0609FF001F6
:103B5000619FF00D1124E65CFB4C41155105A9F065
:103B600061858250984C280F391FD9016C93A0CFE2
:103B7000C0E19C9FF0011124E20FF31FEE0FFF1F25
:103B8000E25BF74C10821182BECF6285EACF8FE0F4
:103B9000809FF001819FF00D1124E65CFB4C1081A9
:103BA0006C2F70E0660F771F66507D4C112329F152
:103BB0008EEC98E1FB018083918310E4CD2FD0E05F
:103BC000FE01E25CF74C108221E0412F6D2D90E068
:103BD00080E07CDDE091F22AB0E1EB9FF00111245E
:103BE000E654FD4CEC0FFD1F108371D68E219F21F2
:103BF000892B39F021E04FE760CFDB011D921C9249
:103C0000DDCF6AD68E219F2120E040E0892B09F488
:103C1000FACE53CF5CD68E219F21892B09F453C055
:103C2000ED2FF0E09091F22A892F90E021E030E032
:103C300002C0220F331FDA95E2F7DC01AA0FBB1F87
:103C4000AE51B74C4D915C912423352374E0880F1D
:103C5000991F7A95E1F7232B99F4DC01A250B84C17
:103C6000BD016E0F7F1F4FE0409F9001419F300DBF
:103C70001124265C3B4CD90119962C91DB012C9325
:103C800086549D4CE80FF91FD0E0CC0FDD1FC650C5
:103C9000DD4C8881998164E670E00E941B47608357
:103CA0008FE0809FF001819FF00D1124E65CFB4CBA
:103CB0004FE764818381DF91CF911F910F91FF9036
:103CC000EF90DF90ACC708D68E219F21892B09F495
:103CD0009ACEED2FF0E09091F22A892F90E021E02A
:103CE00030E002C0220F331FDA95E2F7DC01AA0FA1
:103CF000BB1FAE51B74C4D915C912423352344E05A
:103D0000880F991F4A95E1F7232B99F4DC01A25003
:103D1000B84CBD016E0F7F1F4FE0409F9001419F47
:103D2000300D1124265C3B4CD9011A962C91DB01F5
:103D30002C9386549D4CE80FF91FD0E0CC0FDD1F6B
:103D4000C650DD4C8881998164E670E00E941B4773
:103D500060838FE0809FF001819FF00D1124E65C6D
:103D6000FB4C40E0A6CFB3D58E219F21892B09F4CF
:103D70004ACE8091F22AE82FF0E0EE0FFF1FE652C4
:103D8000F74C208131812E253F25208331836D2FF3
:103D900071DA2091F22A30E0ED2FF0E061E070E07E
:103DA00002C0660F771FDA95E2F7E901CC0FDD1F3D
:103DB000DE01A652B74C4D915C914E215F21CE5150
:103DC000D74CA4E0220F331FAA95E1F7A82FB0E04B
:103DD0008881998168237923452BF9F0672B91F429
:103DE000E901C250D84CBE016E0F7F1F4FE0409FCB
:103DF000C001419F900D1124865C9B4CEC0189858C
:103E0000EB01888326543D4CE20FF31FAA0FBB1F22
:103E1000A650BD4C8D919C913ECF672B91F4E9014A
:103E2000C250D84CBE016E0F7F1F4FE0409FC001B3
:103E3000419F900D1124865C9B4CEC018A85EB011F
:103E4000888326543D4CE20FF31FAA0FBB1FA650D8
:103E5000BD4C8D919C9178CF8091F22ACACBCF92A4
:103E6000DF92EF92FF920F931F93CF93DF93D82FA0
:103E7000C22F6801042F10E02FE0429FF0011124AF
:103E8000E65CFB4C8085823021F08450823008F063
:103E900092C08FE0809FF001819FF00D1124E65CBD
:103EA000FB4C8281853009F058C00CD5C822D9223C
:103EB000CD2809F452C0ED2FF0E0EE0FFF1FDF0117
:103EC000A057B54D8D919C9111978C0F911DC7FDF9
:103ED0009A958D939C931197C0E48D919C91119725
:103EE000843091057CF5E057F54D808191818D3FBF
:103EF0002FEF92076CF16D2F8091F22A76D9811104
:103F000050C08FE0809FF001819FF00D1124E65C8E
:103F1000FB4C8681C03409F450C09FE0909FF001B3
:103F2000919FF00D1124E65CFB4C4C2F678177D6F6
:103F300081E0DF91CF911F910F91FF90EF90DF9083
:103F4000CF90089504978D939C931197CF5FC5CF21
:103F5000049680839183C150C8CF8FE0809FF00189
:103F6000819FF00D1124E65CFB4C8181813019F4B6
:103F7000CC0FC05CC0CF823091F4B7018C2F87FD8D
:103F800081950E947C1424E0969587952A95E1F707
:103F90008F719927C89FC00D1124C05CACCFC05C45
:103FA000AACF8FE0809FF001819FF00D1124E65C85
:103FB000FB4C8685AFCF80E0BCCF81E0BACFAF921B
:103FC000BF92CF92DF92EF92FF920F931F93CF9306
:103FD000DF93C82FD62ED42FC22E5801042F10E005
:103FE0002FE0429FF0011124E65CFB4C828185307A
:103FF00031F468D4A822B92281E0AB2809F480E02A
:1040000081709FE0909FF001919FF00D1124E65C7C
:10401000FB4C9181923009F05CC0811110C0B70156
:104020008C2D87FD81950E947C148C018F3F91051A
:1040300019F010F00FEF10E00931110510F409E14B
:1040400010E06D2D70E0660F771FFB01E650FD4C10
:104050002C2D2003C001219F900D1124208131813E
:10406000820F931F8D39E1E39E0714F08CE991E3F1
:1040700097FF02C090E080E066507D4CFB0180839A
:104080009183C29664E670E00E941B47162F6C2F46
:104090008091F22AAAD8282F41E0612F8D2F0E940B
:1040A0005D168091F22AF0E18F9FC00111248654A1
:1040B0009D4CC80FD92FD11D188381E0DF91CF917E
:1040C0001F910F91FF90EF90DF90CF90BF90AF9036
:1040D00008958111B4CF02EB10E09111B2CF04E644
:1040E00010E0AFCF8F929F92AF92BF92CF92DF92AC
:1040F000EF92FF920F931F93CF93DF93C82FD62E8B
:10410000C42E4901F894A1D3D82F8C2FA5D35C01DC
:104110007894DD23F9F08C012D2F4C2D6D2D8C2FF3
:104120000E941715811116C02D2F4C2D6D2D8C2F2F
:104130000E945E1581110EC0750184012D2F4C2D3A
:104140006D2D8C2F8CDE811105C02D2F4C2D6D2DEA
:104150008C2F35DFDF91CF911F910F91FF90EF9062
:10416000DF90CF90BF90AF909F908F9008950F9366
:104170001F93CF93DF9300D0CDB7DEB778D31A82E9
:1041800001E010E06A818091F22A74D88B838F73EA
:1041900089839801482F6B818A81A4DF9801498126
:1041A0006B818A8109DC000F111F8A818F5F8A83EE
:1041B000803141F72396CDBFDEBFDF91CF911F91B4
:1041C0000F910895E091F22AE295E07FE80F8FE0E9
:1041D000E89FF0011124E65CFB4C9085923031F0B1
:1041E000945081E0923018F080E0089581E00895C5
:1041F000EF92FF920F931F93CF93DF93C82F062F59
:10420000F42ED82FD295DF70182F1F70612F8D2FAD
:104210000E94F518E82EE0E0F110E0E4CE0F809166
:10422000F22AD81326C0812FADD3882321F0812F05
:10423000C9DF8823B9F0EC2FF0E0EE0FFF1FE65046
:10424000FD4C24E6029FC001112480839183EF106E
:1042500009C080E1D89FF0011124E654FD4CE10F24
:10426000F11D0083DF91CF911F910F91FF90EF908F
:104270000895EC2FF0E0EE0FFF1FE650FD4C24E612
:10428000029FC001112480839183EF10EBCFE0E106
:10429000DE9FC001112486549D4C810F911DFC01AD
:1042A0000083E0CFDF92EF92FF920F931F93CF93A3
:1042B000DF93D82E062F142FD22F80914A329AE303
:1042C000E92E94E3F92EC0E08D1181C0662311F030
:1042D000633029F51C52113210F5E12FE295EF7091
:1042E000F0E01F7081E090E002C0880F991F1A95DE
:1042F000E2F7EE0FFF1FDF01A650B84C2D913C9165
:104300001197282B392B2D933C93E253F74C2081A6
:104310003181DD2361F0822B932B80839183DF91A8
:10432000CF911F910F91FF90EF90DF9008958095AE
:1043300090958223932380839183F1CF882309F47E
:1043400055C0F701848181133BC083818D1156C014
:1043500082818250823008F04EC0011119C06D2F49
:104360008C2F0E945F176D2F8C2F0E94AD1728C0D5
:1043700096859D11E6CF013041F48150843008F7D5
:1043800041E06D2F8C2F34DFDCCF8111DACFF8CFF5
:104390000330B1F460E08C2F0E945F17EC2FE295A0
:1043A000EF70F0E1EF9FC0011124EC2FEF70E80FE8
:1043B000F92FF11DEE0FFF1FE25BF74C1082118207
:1043C000CF5FFFE0EF0EF11CC03409F4A8CFF70176
:1043D00087818113B6CF808596819D11C9CF013029
:1043E00009F0ACCF8150853008F0ABCF40E06D2FA5
:1043F0008C2FFEDEA6CF013019F7B1CF25E0D21207
:1044000010C08C2F82958F70E0E18E9FC001112427
:1044100086509C4C2C2F2F70820F911DFC01D08355
:10442000CFCFF2E0DF12CCCF8C2F82958F7020E1BE
:10443000829FC001112486589D4CECCFE0E4F8E047
:104440008781837F8783878187831092F52AE09114
:10445000F62AF091F72A19946F927F928F929F9289
:10446000AF92BF92CF92DF92EF92FF920F931F9382
:10447000CF93DF9380910B2090910C2088968093AE
:104480000B2090930C20809368089093690880918A
:10449000FC2A9091FD2AA091FE2AB091FF2A019654
:1044A000A11DB11D8093FC2A9093FD2AA093FE2AA2
:1044B000B093FF2A81E08093450680E140E050E818
:1044C00030E020E092E0909346066091480662FD5D
:1044D0009DC0BA01262B372B5695479590934506DC
:1044E000815089F78091F42A90E0FC01EE0FFF1FC4
:1044F000E75EF64C2083318301966AE070E00E940B
:104500001B478093F42A90E120E030E8712C612C65
:1045100070E060E082E0809346064091480642FFEA
:1045200078C0A901642B752B8093450680934606BD
:104530004091480642FF70C0A901642A752A369549
:10454000279580934506915031F781E08093460688
:10455000A090FA2AB090FB2AE090F82AF090F92A6D
:10456000E9E0F9E330E020E041E050E08824839482
:1045700099249A94C30184239523A0E0892B09F000
:10458000A4E0CB0184239523892B09F048C090E057
:1045900081E0850104231523012B09F480E0A82B79
:1045A000A92BC70184239523892BD9F580E0A82B5B
:1045B0000A2E000CBB0BA25CBF4D1C918081112305
:1045C00011F0123884F5843610F48F5F8083440F25
:1045D000551F2F5F3F4F31962031310559F66092BC
:1045E000FA2A7092FB2A6093F82A7093F92ADF91D5
:1045F000CF911F910F91FF90EF90DF90CF90BF90E0
:10460000AF909F908F907F906F90089570E060E0E2
:1046100061CF50E040E086CF50E040E08ECF98E0A0
:10462000B7CF82E0C4CF90E00196D901A054B14D3C
:104630000C9117FF30C086309105B4F08901075006
:10464000174CE801D880DA94D8828901000F111F35
:10465000095A1D4CE801C880D9808C0D9D1D8883A6
:1046600099839C921082B3CF0F3F99F4D901A75040
:10467000B74C1C9111501C93D901AA0FBB1FA95A0A
:10468000BD4C0D911C911197800F911F8D939C93A0
:10469000E9CF9C92E7CF86309105ACF089010750B5
:1046A000174CE801D880D394D8828901000F111FDC
:1046B000095A1D4CE801C880D9808C0D9D1D888346
:1046C00099838C92CFCF013031F4D901A750B74CE8
:1046D0001C911F5FD0CF8C92C5CFCF93DF93E0E0CA
:1046E000F6E044E0428322E0228331E0328368E056
:1046F000628390E1928350E25283A0EBB0E04C934E
:1047000088E1808B2C93808B3C93808B6C93808B87
:104710009C93808B5C93808BC0E4D6E039832983A3
:104720004A833D832E83E9EFF8E3DF01892F1D9251
:104730008A95E9F7E0ECFEE2DF011D929A95E9F730
:1047400040E250E06FEF70E087E592E30E949C4BFF
:1047500010922D3910922E391092F4381092F538AB
:10476000109231391092323910922F39109230391B
:104770001092F8381092F738109233391092F638B8
:1047800080E498E00E94A43E6CE272E280E498E04B
:104790000E94E33E6EE172E280E498E00E94103FE6
:1047A000E0E4F8E08181887F818388E290E080A75F
:1047B00091A787818C7F87838781836087838781A7
:1047C000837F87838781878378948081807F8760D8
:1047D00080831092FC2A1092FD2A1092FE2A1092D9
:1047E000FF2A80E48983DF91CF9108959B01409156
:1047F000F52A41111DC041E04093F52A8093F62A25
:104800009093F72A8091600890916108280F391FD2
:1048100020936A0830936B0880914708837F8093C8
:1048200047088091470888608093470881E0089591
:1048300080E008951092F52AE0E4F8E08781837F14
:1048400087838781878381E00895E82FF0E0E75030
:10485000F74C808110820895E82FF0E0EE0FFF1FE3
:10486000E95AFD4C80819181108211820895E9E11D
:10487000F9E32DE239E390E080E041915191842BFE
:10488000952B2E173F07C9F78093F4389093F5388E
:1048900020912D3930912E39AC014095509542230D
:1048A0005323409331395093323920953095282342
:1048B000392320932F393093303980932D399093B9
:1048C0002E3908958091F4389091F53808958091AB
:1048D0002F39909130390895809131399091323942
:1048E00008959091080692FB992790F981E0982706
:1048F0008091080681FF92608091080680FF946095
:104900008091080683FF98608091080684FF90617B
:104910008091080685FF90622091F32A30E0F9012A
:10492000E651F74C9083C90101966AE070E00E945D
:104930001B478093F32AEAEEF8E324EF38E380E0A4
:104940009191892B2E173F07D9F78093F8389091D2
:10495000F738282F209529232093333990959823D1
:104960009093F6388093F73890E008958091F83866
:1049700090E008958091F63890E008958091333961
:1049800090E00895E82FF0E0E75FF64C81E0908139
:10499000943608F080E008950E940C46F89480E870
:1049A0002FEF3FE891E0215030409040E1F700C008
:1049B00000008150A9F78AEC9CEAA2E4BCED809348
:1049C000AB3B9093AC3BA093AD3BB093AE3B0C9410
:1049D000AC408FE090E280933A3990933B39E0E825
:1049E000F6E091E0918382E0818328E0218324E056
:1049F000228396831092092B10920A2B86830895A6
:104A000081E02091092B30910A2B232B09F080E0C3
:104A100008950F931F93CF93DF9300D000D0CDB7AD
:104A2000DEB700916008109161080D831E838091AC
:104A3000062B9091072B8017910708F06FC080918B
:104A4000062B9091072B4091022B5091032B6091E4
:104A5000042B7091052B081B190BC801B0E0A0E0D6
:104A60008C019D01041B150B260B370B09831A8340
:104A70002B833C83C901B80128E030E040E050E0DE
:104A80000E9450474091022B5091032B6091042BC0
:104A90007091052BC901032E000CAA0BBB0B840FD0
:104AA000951FA61FB71F8093022B9093032BA093F3
:104AB000042BB093052B2C5F3F4F29303105B0F408
:104AC0008091002B813091F48093012B80913E39AD
:104AD000882361F08091303290913132892B31F40A
:104AE00081E090E080933032909331320D811E81CD
:104AF0000093062B1093072B8091022B9091032B90
:104B0000A091042BB091052BBC01CD012696CDBF01
:104B1000DEBFDF91CF911F910F9108952091062B59
:104B20003091072B4091022B5091032B6091042B65
:104B30007091052B81E190E0821B930B97FF03C0DE
:104B40009195819591090D811E81800F911F86CFCE
:104B50008091022B9091032BA091042BB091052BF7
:104B600008958091012B089554DF8091002B32D35A
:104B70008091082B811105C01092793281E08093D9
:104B8000082B8091002B8F5F8093002B88311CF0C5
:104B90001092002B089563E00E94FA46923029F4A7
:104BA000809179328F5F8093793208951092002B33
:104BB0001092022B1092032B1092042B1092052BB3
:104BC0001092062B1092072B1092012B0895FFD202
:104BD00031CECF93DF9300D00F92CDB7DEB790E800
:104BE000411190E9392F32953F7039838F70892BAD
:104BF0008A836F776B832F772C8302DF882349F0BA
:104C0000BE016F5F7F4F80913A3990913B390E948E
:104C1000CF402496CDBFDEBFDF91CF910895CF93D3
:104C2000DF9300D00F92CDB7DEB79BE099838F70F2
:104C3000806B8A836F776B834F774C83E1DE8823A9
:104C400049F0BE016F5F7F4F80913A3990913B39B7
:104C50000E94CF402496CDBFDEBFDF91CF91089553
:104C6000EF92FF920F931F93CF93DF9300D00F9299
:104C7000CDB7DEB7F82E8B0181E094E0E92EE3E0BA
:104C8000EF1520F1FF20C1F095E09983D8019C91A8
:104C90009A831B821C82B2E0FB1231C086E08983BA
:104CA000F80181818B83BE016F5F7F4F80913A391C
:104CB00090913B390E94CF402496CDBFDEBFDF915B
:104CC000CF911F910F91FF90EF900895E982F80125
:104CD00081918A83D80111968C918B830D5F1F4F30
:104CE00081818C83BE016F5F7F4F80913A399091B3
:104CF0003B390E94CF40BDEFFB0E80E0C0CFF3E018
:104D0000FF12D1CF882351F0F982D80111968C91EE
:104D100011978B8312968C918C83C5CF87E0898302
:104D2000F4CFEF92FF920F931F93CF93DF9300D0B6
:104D30000F92CDB7DEB7E62F69837A838B839C838E
:104D4000E450EC30E0F4F0E08827E355F44B8F4F6B
:104D50000C946C478A818A3FE1F08C3FF9F0883FE0
:104D600071F48091A2008B7F8093A20081E08093F8
:104D7000082BFADE8091A20084608093A200249622
:104D8000CDBFDEBFDF91CF911F910F91FF90EF90CC
:104D900008950CDF81E08093082BF1CF18DF10928B
:104DA000082BEDCF1A811F70FB80EC8080914A3276
:104DB000811309C083E08F1530F08FE7E81203C03C
:104DC0008F2D0E94F91A01E02E2D4F2D60E0812FCA
:104DD00069DAD5CF8A8100E02C814B8163E08F7046
:104DE00061DACDCF1A811F70FB80EC8001E02E2D9F
:104DF0004F2D61E0812F56DA80914A32811309C02C
:104E000083E08F1530F08FE7E81203C08F2D0E94EA
:104E1000F91A173009F0B3CF6E2D8F2D57D2AFCFBF
:104E2000CE0101960E947335AACFCE0101960E9451
:104E30008A36A5CFCE0101960E945136A0CFCE0171
:104E400001960E94F6359BCF81E0089580913E390E
:104E5000882339F07DDEBC01769567958EE397E275
:104E6000C5CC76DEBC01660F771F680F791F76957B
:104E70006795769567958EE397E2B8CC2F923F922F
:104E80004F925F926F927F928F929F92AF92BF925A
:104E9000CF92DF92EF92FF920F931F93CF93DF9306
:104EA00000D000D0CDB7DEB780913C3990913D392C
:104EB000029709F099C040900C2B8FEF840D4110A0
:104EC00001C08FE0A82EB12C23E4822E22E3922E83
:104ED00041E459E349835A8330E1E32E32E3F32E70
:104EE00044E7C42E4BE2D42E10E000E05CE0252E17
:104EF000512C6FE7662E712CD4013D904D010B8330
:104F0000330C330C84E2800F380EE981FA818191F1
:104F1000E983FA8399E0980F933108F47BC018165F
:104F20000CF078C06AE00E94FA46843008F083E012
:104F3000E82FF0E0E55AFF4D80910C2B60810E9434
:104F4000EE46911183C04FE750E04D835E83D6015A
:104F5000ED916D01209EC001219E900D1124E80F5E
:104F6000F92FF11D84E0EE0FFF1F8A95E1F7E05065
:104F7000F14DEA0DFB1D8081882329F02FE740E0E9
:104F8000632D87E026DEED81FE813097B1F0D701F9
:104F900016962C912E9FC0012F9F900D1124B301C6
:104FA0000E9407476C83262F41E0632D87E011DEC6
:104FB0006B81665F4C8187E032DE0F5F1F4FB8E088
:104FC000EB0EF11C0430110509F096CF80913A39AF
:104FD00090913B390E94F94080910C2B91E0980F01
:104FE0008F30B9F190930C2B2696CDBFDEBFDF91A9
:104FF000CF911F910F91FF90EF90DF90CF90BF90D6
:10500000AF909F908F907F906F905F904F903F9068
:105010002F900895D601EC91209EC001219E900D05
:105020001124E80FF92FF11D94E0EE0FFF1F9A9560
:10503000E1F7E050F14DE40DF51DB081BC83BB23D9
:1050400029F0EB2FF0E0ED83FE8381CF1D821E82DD
:105050007ECF10920C2B81E080930B2BC5CFAF92AB
:10506000BF92CF92DF92EF92FF920F931F93CF9355
:10507000DF9303E412E384E7A82E8BE2B82EA0E1CD
:10508000B2E340E05FE230E020E09FE3D92E7FE72B
:10509000E80119928E0190E080E0FC01EB50FB4F9B
:1050A0007C01E40EF51E60E1C490E701C9927E0127
:1050B000615031966111F8CF4096803C910569F7B7
:1050C000F50111925F0115961C9215971796DC92C7
:1050D000179714961C92149716967C931697119610
:1050E0001C9211971896245F3F4F40545F4F203316
:1050F000310571F610925632E0EDFEE280E2DF01FA
:105100001D928A95E9F7E2E3F2E380E1EF0119925B
:105110008A95E9F7E0EFFEE284E0DF011D928A95CF
:10512000E9F78FD4E0EDFEE2A2E3B2E34CE958E107
:105130009FE32CE931E38FE7119211921D92468B88
:10514000578B1B969C931B972687378717968C93B4
:105150001797CEE2E83DFC0779F780933F3910922C
:10516000132B8093142B10924039109230321092EE
:1051700031328AE58093473210923E3910923C39A1
:1051800010923D39DF91CF911F910F91FF90EF90D9
:10519000DF90CF90BF90AF90089580913C3990916F
:1051A0003D39892B51F481E090E080933C39909314
:1051B0003D394FE76EE087E032CD10923C391092D6
:1051C0003D3910920C2B40E06EE087E028CD109224
:1051D0000C2B0895CF93C82F80913C3990913D3985
:1051E0008130910551F4C11125C082E090E0809397
:1051F0003C3990933D39CF9141CE0297D9F4B1DC3F
:10520000882381F08C2FCC0F990B029666E070E01A
:105210000E941B47892B71F461E070E086E297E2FF
:10522000CF91E4CA8C2F66E00E94FA46911102C029
:10523000CF9124CECF910895282F30E0F901EC587A
:10524000F44D80819CE0929FA001939F500D11240A
:10525000840F952F911D24E0880F991F2A95E1F75F
:105260008050914D860F911DFC0180810895282F5B
:1052700030E0F901EC58F44D80819CE0929FF00100
:10528000939FF00D11248E0F9F2F911D24E0880F06
:10529000991F2A95E1F78050914D860F911DFC01D1
:1052A00040830895E82FF0E0ED5BFD4C60830895A6
:1052B000E82FF0E0ED5BFD4C808108954FE76FE053
:1052C00087E0ADDC40E06FE087E0A9CCE82F8CEE12
:1052D0008E0F8430C0F4E451FF0BB3E0EE0FFF1FDC
:1052E000BA95E1F7E05FFD4C81E0611180E08483D5
:1052F00080913032909131320197E9F40E94253348
:105300000497C9F48FC088EE8E0F8430A8F4E8515A
:10531000FF0BA3E0EE0FFF1FAA95E1F7E05FFD4C46
:1053200081E0611101C080E08583809130329091ED
:105330003132019719F308958AE98E0F803160F5B3
:105340002E2F2656330BC901237033279595879549
:105350009595879541E0611101C040E053E0220F2F
:10536000331F5A95E1F7205F3D4CF90182309105DA
:1053700079F08330910571F0019711F04083089521
:10538000418380913032909131320197A1F6B6CFAE
:105390004283089543830895EF3079F480911C206F
:1053A000882349F281E080933E3984E090E00E94B6
:1053B0002A339CD110921C2081CFEE3009F0BBCF54
:1053C000662371F080913C3990913D39892B09F029
:1053D000B2CF81E090E080933C3990933D390895BD
:1053E00010923C3910923D3910920C2B10920B2BDD
:1053F000A2CF8430A0F09CEF980F943050F098EF3B
:10540000980F943048F08C50843048F483E090E05A
:10541000089581E090E0089582E090E0089590E0A2
:1054200080E008954F925F926F927F928F929F9249
:10543000AF92BF92CF92DF92EF92FF920F931F93A2
:10544000CF93DF9300D0CDB7DEB7E091732BF0E0C0
:10545000E45EFD4FE491E0914832F0E0E45EFD4F00
:10546000E49180E1C82E82E3D82E90EDA92E9EE231
:10547000B92E24E7822E2BE2922E1A82612C30E87C
:10548000732E46EF442E44E0542E54E6F52EF601DA
:1054900084818111A1C0E091732BF0E0E45EFD4FA7
:1054A00084918B83E0914832F0E0E45EFD4F1491EB
:1054B000F6018181882309F493C04B8168E78A81D2
:1054C0000E94A00C8A81F4DEB30102C07695679534
:1054D0008A95E2F7412F8A810E947E0C8A81E8DE5C
:1054E000849D9001859D300D1124F5012193319308
:1054F0005F01F40181914F01B30102C07695679578
:105500008A95E2F7412F8A818C5F0E947E0CF4011C
:1055100031972081249DC001259D900D1124F50116
:1055200086839783FA81F85FF983F601848181117C
:105530005CC04B8161E089810E94A00CE12E00E0FB
:1055400021E030E040E0F601668189810E94630B32
:10555000F60186818F9DC0011124F501868797870A
:10556000FA81F45FF983F6018581882309F442C04A
:105570004B816FE089810E94A00CE12E0EE721E0B3
:1055800030E041E0F601678189810E94630BF601FA
:1055900087818F9DC0011124F501868B978BFA813D
:1055A000FF5FFA8388E0C80ED11CF43009F06FCF9A
:1055B0002396CDBFDEBFDF91CF911F910F91FF905A
:1055C000EF90DF90CF90BF90AF909F908F907F90A3
:1055D0006F905F904F900895EAE0EB831AE068CFF8
:1055E00060E08A810E94B10C6DCF60E089810E94E9
:1055F000B10CA4CF60E089810E94B10CBECF8F9224
:105600009F92AF92BF92CF92DF92EF92FF920F9351
:10561000CF933FD26C0190EDA92E9EE2B92EC0E04F
:10562000EE24E394F12C3CE9832E31E3932EC60162
:105630008E219F21892B01F16EE38C2F0E94B10CEA
:1056400000E021E030E040E060E08C2F0E94170C89
:10565000F501819291925F01EE0CFF1CCF5FC0318A
:1056600031F7CF910F91FF90EF90DF90CF90BF90E7
:10567000AF909F908F90089560E08C2F0E94B10CA6
:10568000DFCFEF92FF920F931F93CF93DF9380EDC5
:10569000E82E8EE2F82EC0E014E66C2F8091563290
:1056A000CBDDD82F8823E9F06AE08C2F0E94B10C63
:1056B00000E021E030E040E06D2F8C2F0E94170CBD
:1056C000D19FC0011124F701819391937F01CF5F96
:1056D000C03119F7DF91CF911F910F91FF90EF909B
:1056E000089560E08C2F0E94B10CE2CF809130329F
:1056F000909131328230910531F08330910521F063
:10570000019719F48FCE7BCFBCCF0895DF92EF9233
:10571000FF920F931F93CF93DF93182FC82FD0E0E2
:10572000FE01EE5CFD4CD080E091732BF0E0E45E76
:10573000FD4F0491E0914832F0E0E45EFD4FF490BB
:1057400058DE8230910509F495C010F5892B59F582
:1057500073E0CC0FDD1F7A95E1F7C05FDD4C8C81E3
:10576000882311F06AE0F62E812FA2DD60E070E858
:1057700002C0769567958A95E2F74F2D812FDF91CC
:10578000CF911F910F91FF90EF90DF900C947E0CC2
:10579000039709F486C0DF91CF911F910F91FF907D
:1057A000EF90DF9008959E0124503109E90153E004
:1057B000CC0FDD1F5A95E1F7FE01E05FFD4C8481BF
:1057C000882311F04AE0F42EF901EF5BF64C80815A
:1057D000882391F16AE00E94FA46A82FB0E0AA0F50
:1057E000BB1FA15ABF4D6D917C914F2D812F0E94FF
:1057F0007E0CF0900C2BFF2079F1FA946F2D8CEF3A
:10580000810F1ADD882359F1C05FDD4C8C81811135
:105810000AE0A7D9402F60E5882321F06DE3F1105D
:1058200060914732812FDF91CF911F910F91FF90AF
:10583000EF90DF900C94A00C2C58344DF90180812E
:1058400060E070E802C0769567958A95E2F74F2D83
:10585000812F0E947E0CCDCF2FE0F22ECFCF60E0C3
:10586000812FDF91CF911F910F91FF90EF90DF90EB
:105870000C94B10C93E0CC0FDD1F9A95E1F7C05367
:10588000DE4C8C81882359F08AE0E82E00E022E08B
:1058900030E040E06D2D812F0E94630B7CCF8FE7BD
:1058A000F4CF83E0CC0FDD1F8A95E1F7C055DE4CC5
:1058B0008C81882359F08AE0E82E0EE722E030E060
:1058C00041E06D2D812F0E94630B65CF8FE7F4CFF0
:1058D000CF93DF93D82FC0910C2BCC23F1F0C15084
:1058E00080913C3990913D39029709F0C0E0CD1389
:1058F00018C0609147328C2F0E94B10CCC2379F0F4
:10590000C1506C2F8091563297DC682F81116AE06C
:105910008C2FDF91CF910C94B10CCFE0E1CFCFE091
:10592000F0CF6D2F8091563287DC882331F06AE00A
:105930008D2FDF91CF910C94B10C60E08D2FDF9112
:10594000CF910C94B10C0F931F9350910C2B90910D
:105950000D2B5917C1F140911D204031A0F548137E
:1059600032C080913F396AE10E94EE4624E030E087
:10597000281B3109F901EA5AFF4D2081852F622F3A
:105980000E94EE46592F9C30D0F42150330B80E01A
:1059900090E802C0969587952A95E2F700E010E816
:1059A0002FEF3FEF04C036952795179507955A9529
:1059B000D2F7BC01602B712B842F0E94990C80912F
:1059C0000C2B80930D2B1F910F9108950F93209115
:1059D0000F2B80913032909131322817190609F03F
:1059E00085DE209130323091313220930F2B80911F
:1059F0000E2B22303105F1F078F4232BC9F400E0AE
:105A000030E020E040E060E00E94170C60E580910B
:105A10000E2B0E94B10C03C02330310569F0809138
:105A20000E2B8F5F803150F480930E2B0F910895D1
:105A30006DDEF5CF88DFF3CF4BDFF1CF10920E2B69
:105A4000F5CF0F931F93CF93DF931092112B1092EA
:105A5000122B01E010E0CDE0D4E0CE010E945538D9
:105A6000853A51F48091112B9091122B802B912B20
:105A70008093112B9093122B000F111FC05CDF4FEE
:105A8000CD3088E0D80749F7DF91CF911F910F9172
:105A900008958091112B9091122B0895F89421E094
:105AA00030E0082E02C0220F331F0A94E2F720953F
:105AB00030954091112B5091122B242335232093A4
:105AC000112B3093122B20E4829FC00111246FEF21
:105AD000835F9B4F0E94AD38789408957F928F9298
